:020000041000EA
:101000004805002019100010000000009910001081
:1010100000040100000100001149124A124B00F0C7
:1010200018F8124880471249124A134B00F011F881
:101030001249134A134B00F00CF81349134A0020CD
:10104000521A02DD043A8850FCDC114880471148EE
:1010500080479B1A03DD043BC858D050FBDC704727
:10106000504A00100C00002044010020E91000103C
:10107000884B00104805002020060020604C00101E
:10108000200600202006002020060020A8060020C0
:101090003545001009240010FEE700000C4A08B591
:1010A00013680C491B041B0E0B60FF2112681140D2
:1010B000094A1160002B03D10848094B186008BD8C
:1010C0001B025918074800F05FFA4000F5E7C046D8
:1010D0000003014020060020240600200048E8010B
:1010E000FC3F0020000024F408B500F0D5FF00F01C
:1010F000DDFF08BDF0B503244746261C80B4F82761
:101100000E40F600B7408B089B00C3181D69B0461F
:10111000BD434F00BC401D61456F0426A543456794
:1011200007250D40AD00AE40CC08A4000419276C83
:10113000B74327645678276CAE40351C3D43256481
:101140000A4CA0420CD0546812788C40446040464F
:101150008240161C19690E431E6104BC9046F0BD06
:1011600001258D40046EAC430466ECE700020440A8
:10117000C0230421084A5362536A1942FCD18021DA
:10118000064AC90513691843106113680B42FCD164
:10119000C322014B5A627047000001400003014026
:1011A000034B9B681840431E9841C0B27047C0462D
:1011B00000030140F8B5C02304242D4A5362536A4A
:1011C0001C42FCD12B4A2C4D1468136824041D408A
:1011D0002A4B240E2B430B4380211360C90513684F
:1011E0000B42FCD1844229D98021254B8600214A1B
:1011F0009C46224FC905B4420CD965461368A40821
:101200002B403B4325022B43136013680B42FCD158
:10121000B442F2D8174A1A4B116800020B40174922
:101220000B43802103431360C90513680B42FCD1B3
:10123000C3220F4B5A62FFF731FFF8BD80210D4AE0
:101240000F4F0E4EC905A3009842E3D9002C0AD0D7
:10125000A5021C1C13683B4033432B4313601368E7
:101260000B42FCD1EFE780250424ED00F2E7C046F5
:10127000000001400003014000FF0FC00000F03FEC
:10128000FF000FC0C02304210B4A10B55362536AFC
:101290001942FCD182684168084C11432368084A0E
:1012A0001340C3220B432360034B5A6243780178F7
:1012B000181CFFF77FFF10BD000001400003014034
:1012C000FFFFF0FF014B18687047C046FC3F00204D
:1012D00038B50A4B041C0D1C98420BD08022E368E1
:1012E00052001343E3602168054B0B40A9031943E7
:1012F000216038BD0420FFF73BFFEFE70000044802
:10130000FF3FFFFF03680A0C09049343090C1943CC
:10131000016070470B6843614B799B06DB0F1B052F
:1013200043600B791B071B0F43624B791B071B0F95
:1013300003624B79DB06DB0F83610B791B09C36208
:101340007047C04610B503244368A3431943416066
:101350004369012A03D0044A1340436110BD80222F
:10136000D2001343F9E7C046FFFBFFFF10B50C2482
:1013700043688900A343194341604169024B12024B
:101380000B401A43426110BDFFFCFFFF4268034B54
:1013900009031340194341607047C046FFCFFFFF68
:1013A00070B544690B4D4668890435402943416056
:1013B000012A0BD0084A2240002B03D1074B1340CF
:1013C000436170BD80231B041343F9E7802252045C
:1013D0002243F1E7FFFFF3FFFFFFFFFEFFFF7FFF69
:1013E0004268034B89031340194341607047C0466C
:1013F000FF3FFFFF4268034B09021340194341605E
:101400007047C046FFFCFFFF4268034B8902134050
:10141000194341607047C046FFF3FFFF80234268D5
:101420005B02134343607047802310B544689B02FE
:10143000234343604369002A08D080229203134368
:10144000012907D0054A1340436110BD044A1340E7
:101450000129F7D18022D2031343F5E7FFFFBFFF35
:10146000FFFFDFFF10B5154B04681C404B789B0451
:101470002343134C2340547824052343114C234029
:101480008C78E4052343104C2340947824062343AE
:101490000E4C2340CC780978E40623430C4C090118
:1014A0002340D478127864072343F024A3430B43EA
:1014B000084912020B401343036010BDFFFFF3FF06
:1014C000FFFFCFFFFFFF7FFFFFFFFFFEFFFFFFE7F5
:1014D000FFFFFF9FFFF0FFFFF0B54E1EF6B2740056
:1014E000E4B2251C1035EDB24746AC4680B4032566
:1014F0006746A846BD4003681531AB435578C9B26D
:10150000BD402B4301258D40AB43957847468D4028
:1015100019342B43D578E4B2A740A5400F24B60078
:10152000F1B212788C408A40BB432B43A343134350
:10153000036004BC9046F0BDA82330B5C558092906
:101540000BD8074B8900CC58E343064C09598A4015
:101550002B401A43A823C25030BD0C21024BF6E7A2
:1015600080450010A8450010FFCFFFFF10B50324F1
:1015700049008A408C40111C436FA3434367436F6B
:101580001943416710BDC0460422034B5A631862D9
:101590005962986A7047C046000003400422034B1A
:1015A0005A6318625962D96A986A7047000003400A
:1015B00070B50D1C041C00F04FF8EA79002A26D003
:1015C000560801363602201C296800F05FF8AA7917
:1015D000531E5A00134B134381223343E3632B7989
:1015E0005200013B1B06134363636B79002B12D13E
:1015F0002A79616B531E1B040B436363A023DB003A
:10160000A36301235B42E3642B89236470BD9026AE
:1016100010223601D7E7626B013B1B04134363635F
:10162000ECE7C0460100030084235B00C258E023BE
:10163000DB041A420BD17F22836B9343DBB2802BF6
:10164000FAD080239B01C3648023C1507047C0231C
:101650005B00C150FAE7C046902310B5DB05041EBD
:101660009C420DD0084B98420AD003230122E3602C
:10167000E3681A42FCD00F22236C9343236410BD0D
:101680000820FFF775FDF0E700020048F0B55F465F
:1016900056464D464446F0B4012383B0632901D930
:1016A000002A07D1181C03B03CBC90469946A246BC
:1016B000AB46F0BD171C0C1C01920090FFF702FE18
:1016C0006421FFF761FF6421061C201CFFF75CFF0B
:1016D000174B4743994601234C469A469B46C846BA
:1016E000B502AD1B281C391CFFF74EFF830A43458A
:1016F00006D88005800D484502D281469A46A34609
:10170000013CAD1B002CEDD180235A4600981B02F2
:1017100013430361019A4169064B013A92020B405F
:1017200013435246013A1204134343610023B9E7BD
:10173000FF030000EF8000FC70B584256D00465962
:10174000064C1206344044514659054C1B023440A5
:1017500021430A431343435170BDC046FFFFFFF8C6
:10176000C0C0FFF870B5862676008559074C120672
:101770002C4084518459064D1B0225408024640569
:101780002C4321430A431343835170BDFFFFFFF8ED
:10179000C0C0FFEF10B507248C408A408369A34383
:1017A0001343836110BDC046FF2238B50D1C041CD5
:1017B0000D4B01201A60FFF7DBFC6B69236080236F
:1017C0006A681B0213438022A350A023AA68E25038
:1017D000EA680433E2502A69DD33FF33E2502A68B5
:1017E000C93BFF3BE25038BD00050140802380210A
:1017F000C25809060A43C2500C4AD158C0239B0262
:10180000194205D080218020490513580B42FCD194
:101810008023074AD158C0239B02194205D080215A
:101820008020490513580B42FCD17047000403483F
:1018300000080348A023C2589C46304BF0B51A401C
:10184000141C1F274A792E4D5207520D22430C7942
:10185000BA43E406E40E2243644602510259294E7B
:101860002A40141CCA795207520922438C7932400B
:10187000E406E40A224364460251043402591A4041
:101880004B7A5B075B0D13430A7ABB43D206D20E39
:101890001343035103598A7A1D40CB7AD2065B0762
:1018A0005B092B433340D20A1343035180230A6957
:1018B000C250CA683833C250CB781D07DF069C0679
:1018C0005B06DA0F4B88FF0F9B059E090B78802182
:1018D0005B075B0F3343F826760083518359090673
:1018E0003F070B43AD0F3B43AD06E40F2B436407AB
:1018F0002343191C93070B438351F0BDFFF8FFFFEF
:10190000FFFFFFF8FFFFE0FFF0B5002A17D0CA0283
:101910004901D50E4A0F182110268C460D4F0E4C4A
:101920009B00C318A02019580C4061468A40111C26
:101930002A1CB2402143394011431950F0BDCA0658
:101940004905D50E20274A0F082100267F428C46E4
:10195000024CE5E7FFFFE0FFFFFFFFF8FFF8FFFFA6
:10196000802210B503248358A3431943815010BD2E
:101970009142924152428918C02210B503248358E3
:10198000A3431943815010BDC022032183588B43C8
:1019900083507047074B984208D0012303318B4096
:1019A000191CC02283581943815070470029F4D173
:1019B0001031F6E700080348002907D0012900D0BC
:1019C00070478423C2581143C150F9E78022012394
:1019D00081580B438350F3E770B5842503264259A1
:1019E0001B4B0C78134043514359B3431A1C230734
:1019F0009B0F134334401CD00822134343514A68C1
:101A0000144B13438022520083508B68FF3A1343D8
:101A10000432FF328350022C04D1802183584902C2
:101A20000B43835084228021835849040B43835005
:101A300070BD43514A68074B1343802252008350C4
:101A40008B68FF3A13430432FF328350EAE7C04603
:101A5000FFFFFFFE00808080E02210B50F245200BF
:101A60008358A3431943815010BDC04670B501246B
:101A700088258C404359A343147B8C402343435116
:101A8000537B5CB2002C0CDB012921D0002917D03C
:101A90001C1C002364B29C40B026231C85592B4398
:101AA0008351C8245568035980312B4303510834AE
:101AB0009568035989002B43035113680B5070BD7F
:101AC000B0241F250359AB430351547B0023E1E7A6
:101AD000B024034B05592B400351547B0823D9E70D
:101AE000FFE0FFFF30B507290ED9DA25084C6D005D
:101AF000A4464359614489000F248A408C40111C3C
:101B0000A3431943415130BDD8256D004359F2E735
:101B1000F8FFFF3F7047C04608B543685B689847C9
:101B200008BDC046F8B54F4646464468031C212010
:101B3000C0B4205C022804D004200CBC9046994616
:101B4000F8BD002932D00130002AF6D09D68013856
:101B50002E7E002EF1D1013828762230275C1868BD
:101B6000002F04D080258C242D026400055190465E
:101B70001C1C8A263B1C232280270D1C88447600CF
:101B80007F01914609E029780135FFF74DFD454574
:101B90000ED04A46636820689B5C002BF3D08359C3
:101BA0003B42F0D083593B42F9D1ECE70320C4E734
:101BB00023236268D35C002B07D08A21802220680F
:101BC0004900120143581342FCD00022A3680020B0
:101BD0001A76B2E770B51D4E1D4C301C1D4A062109
:101BE000FFF788FA201C1C49FFF7E2FC07220225B8
:101BF000E369201C93432B43E361A36A10219343C1
:101C0000A362236B93432363636BB9329343803A9C
:101C1000134363633C3A0123FFF78EFD201C002130
:101C200004220F23FFF79EFD0F22236C301C9343E9
:101C30001D4325640721094AFFF75CFA201C102187
:101C40000022FFF7A7FD002070BDC0460000044041
:101C50000002004818460010D0450010044600104D
:101C600070B5067F0224002E01D0201C70BD0368D1
:101C7000051CD86C00F094F9002802D02E770124BE
:101C8000F3E72B68A868996BFFF744FB2B68A868FB
:101C90005A8842639A88C2639A6BD278144200D001
:101CA0001CE16A6829691161696911615A69012138
:101CB000FFF712FC2B68A8689A690221FFF70CFC59
:101CC0002B680321DA69A868FFF706FC20232A683D
:101CD000D15C131C002900D0F9E02222995C002974
:101CE00000D0EDE02422995C002900D0E3E0252219
:101CF000995C002900D0D9E02622995C002900D007
:101D0000CFE02722995C002900D0C5E02822995C09
:101D1000002900D0B7E02E229A5C032A00D1E4E02B
:101D20002B229A5C022A48D09A79002A68D1DA7963
:101D3000002A58D11A7A002A00D097E05A7A002A4D
:101D400000D086E09A7A002A75D1DA7A002A64D126
:101D50001A7B002A0CD0DA7CA8680A21FFF7ECFB7A
:101D6000A4228020A968C0008B5803438B502B68A5
:101D70003C229A5C002A2ED1DA6C002411689A6BFE
:101D800012791207120FD140012229622A7719789D
:101D9000002900D169E7161C697B6C688E40311CF4
:101DA000E0680143E16020215B5C002B01D1AB685E
:101DB000DA60022300242B7757E72A329A5C032A41
:101DC000B2D19969DA69A868FFF74CFBA868FFF7F8
:101DD00025FB2B68A8E74422186C995C9A6CFFF7E6
:101DE00089F92B68C8E79A7BA8680221FFF7A4FB52
:101DF000A4220423A968885803438B502B6899E7D1
:101E00005A7BA8680021FFF797FBA4220123A96849
:101E1000885803438B502B6889E79A7CA86809216E
:101E2000FFF78AFBA4228020A96880008B58034317
:101E30008B502B688CE75A7CA8680821FFF77CFB45
:101E4000A4228020A96840008B5803438B502B6844
:101E50007BE71A7CA8680121FFF76EFBA42202230E
:101E6000A968885803438B502B686BE7DA7BA86816
:101E70000321FFF761FBA4220823A96888580343C4
:101E80008B502B685AE72A2001329A5C1B5CA868A9
:101E9000FFF786FA2B683EE7A868FFF777FA2B680A
:101EA00034E7A868FFF79CFA2B682AE7A868FFF7D1
:101EB000A1FA2B6820E7A868FFF7A6FA2B6816E7B7
:101EC00001329A5CA868FFF751FA2B680AE72122D1
:101ED000A8689A5CFFF736FA2B68FEE6596B6868CB
:101EE000FFF710FAA8682B68DBE62D32995C013AFF
:101EF0009A5CA868FFF798FA2D232A68D25C2B68B1
:101F0000002A00D10CE78020A96880024A690243B8
:101F10004A6105E7F0B50278437851B2002922DB27
:101F20001D4C0325A446FF24C026D2B289081540C3
:101F3000ED0089006144A446AC40B6008F59A74328
:101F40009C0163461C40231CAB403B438B51837870
:101F5000002B06D01F231A401E3B93401A1C0E4B29
:101F60001A600020F0BD03240F21D2B2114022409C
:101F7000FC34251C0948D20084469540083989085C
:101F800089006144C8699B01A84323409340021C17
:101F90001A43CA61E5E7C04600E100E000ED00E059
:101FA00010B5437B002B0CD1041C017B8068FFF72C
:101FB0008FF98021A2684900D3680B43D3600123C5
:101FC0006373002010BDC046F8B54F464646C0B406
:101FD000037E022B04D0181C0CBC90469946F8BD19
:101FE000041CC068A168FFF7DFFB802398467F3B95
:101FF000251C0026994600272B6803CBFFF71AFC07
:102000002B6803211868FFF7ABFC2B681B7A002BA9
:102010000AD14346E1684846CA58331C10339840F9
:10202000031C134342468B50F1B22069FFF7C4FCF6
:1020300008CD5F72012E16D123690E4A196C0A4031
:10204000802109020A431A641A6C0A431A64186C44
:10205000094A196C02400A431A64637E002B04D1BA
:1020600000232376B7E70126C6E7E068FFF7BEFB4B
:10207000F6E7C046F07FFFFFFFF3FFFF10B5041C3B
:10208000017B021D0068FFF735F82068217B627B29
:10209000FFF76CFA002010BD7047C0460378002B94
:1020A00001D10133037000207047C04630B585B0C0
:1020B00001A8021C034B32CB32C2FFF7E3F805B094
:1020C00030BDC046C0470010F0B55F4656464D468D
:1020D0004446F0B4036983B01B78022B07D0181C68
:1020E00003B03CBC90469946A246AB46F0BD041CEA
:1020F0000120FFF755F8637D764E9B00F5580028C8
:1021000000D0BDE08423EB58DB01DB0F9946724819
:10211000E768FFF759FFBB7D0022F9688046281C5D
:10212000FFF7F2FB281C3969FFF756FC3B7D0320C3
:102130009C4682235B00E9588143E9506146EA5896
:102140000A43EA503B7A002B6DD14B46002B07D156
:102150008422637D9B00F158604B885803408B506C
:102160005F480021FFF7FCFB5E480021FFF7F8FB0A
:1021700001225B480021FFF7FBFB01215948FFF7D3
:1021800009FC5848FFF700FC56480321FFF7E8FB1D
:10219000A3689847E37D002B1FD05F1EFFB2013775
:1021A000BB009946002523685F5904353B7A797A4C
:1021B0009B00F0583A68FFF759FCA0208000844645
:1021C0003B7A79689B00F2583B6809689B781B074B
:1021D0009B0E634499504D45E5D1E3681A7A002A75
:1021E00002D0227D032A6AD0637D62689B00F0588A
:1021F000A37D002B0CD0882500236D0002CA01337B
:1022000009684151A17D8B42F8D3637D9B00F05852
:1022100084228021835849040B438350424623691A
:102220001A7043465BE73968CBB29A467B685246E0
:1022300001936B46DA7052B2002A24DB2A4B9208D3
:102240009C46C023920062449B009C46D3580840A1
:102250009A46FF23191CC00081409B4653468B437E
:1022600059469A46019B9B010B408340181C5346DC
:1022700018436346D050797D281CFFF7EDFB64E7D7
:102280000023994643E753460F221A40174B083A5A
:102290009C469208920094446346FF22D9695346B3
:1022A0001840131CC000834099438A46019B990142
:1022B0000A408240534613436246D361DBE71B6802
:1022C0001A0691D41F2213401E3A9A40131C064A44
:1022D000136089E7CC470010C0050020FFFFFFFE18
:1022E000000803480004034800E100E000ED00E0BE
:1022F00008B503480A210122FFF7F4FB08BDC046D8
:102300000008034808B5034809210122FFF7EAFB4A
:1023100008BDC0460004034808B52A48FFF7BEFEC2
:10232000002800D008BD2848FFF7F6FB0028F9D1A7
:102330002648FFF7EFFD0028F4D12548FFF7EAFD16
:102340000028EFD12348FFF7BFFE0028EAD122483A
:10235000FFF7BAFE0028E5D12048FFF78FFE0028DE
:10236000E0D11F48FFF78AFE0028DBD11D48FFF7A8
:1023700085FE0028D6D11C48FFF780FE0028D1D169
:102380001A48FFF77BFE0028CCD11948FFF776FEEC
:102390000028C7D11748FFF771FE0028C2D11648A0
:1023A000FFF76CFE0028BDD11448FFF759FC002848
:1023B000B8D11348FFF754FC0028B3D11148FFF7F8
:1023C0005DFEAFE74406002048050020EC46001003
:1023D000E84600109C480010D8480010B047001094
:1023E000A047001090470010804700105047001091
:1023F0006047001040470010704700107C05002027
:102400005405002030470010F0B55F4656464D4653
:102410004446F0B489B0FFF77FFF002800D0ECE01D
:10242000764B774E1A681B7B00920293754B764C65
:102430001A681B7B0192754A03939246744A754B46
:102440009046754A754F9146754A93461A681B7BAC
:102450000692802252029A4007928023029A5B02DF
:102460009340012504932B1C039A934005933FE06E
:1024700053461B68002B01D153461D60694B1868F9
:1024800000F0BEFA684B98424AD93368002B00D15D
:102490003560664B186800F0B3FA82284ED943467F
:1024A0001B68002B01D143461D60424653461B6802
:1024B000306811685E4A034312780B4313434A465F
:1024C00013601368002B43D02B1C029A9340009A90
:1024D0005360584B039A1D7080235B029340019A0E
:1024E00053600023544A13705B461B68042B40D88A
:1024F000524B186800F084FA514B9842B8D8514BAF
:102500009842BBD853461B68012BB7D153460022D3
:102510001A60444B186800F073FA434B9842B4D8E1
:10252000494B9842B5D83368012BB2D100233360B0
:102530003E4B186800F064FA8228B0D85928B4D805
:1025400043461B68012BB0D1434600221A60ACE71A
:10255000069A07995160009A04995160354A1370A0
:10256000019B059A5A60344B1D705B461B68042B17
:10257000BED95B4600251D60344B1868344B196882
:1025800000F016FA334B1A681B7B00281AD0802102
:102590004902994051600122101C2F4B1D702F4B96
:1025A000053519681B7B98402D4B48601A70201C1C
:1025B0002C490122FFF7B6FA0028F8D1013D002D81
:1025C000F5D14AE701210D1C9D40234B5560197040
:1025D0008021224B49021A681B7B05259940204B1C
:1025E00051601870201C391C0122FFF79BFA00284B
:1025F000F8D1013D002DF5D12FE7FEE7404700104F
:10260000880600207047001048050020580600206A
:1026100060060020504700107C0600200C49001086
:102620008C06002074060020E02E000068060020C2
:1026300018060020A4060020A60600205006002050
:1026400048710000776900000F2700004C06002049
:102650001C06002060470010A7060020304700102D
:10266000A5060020084900105F4A60491368F0B5CC
:10267000013313600B7A5E4A9B0098580B68C021A7
:1026800089008C4683B001939B785A491B079B0EA7
:1026900063441B58584C9BB29B0823600B7A574DE0
:1026A0009B0098580B68564901939B781B079B0E1B
:1026B00063441B589BB29B082B600B7A9B009A5873
:1026C0000B68002101939B781B079B0E63449B586A
:1026D0004C4A9BB29B08136013684B4A9B089BB201
:1026E00013801388494F4A4B4A4E3B60306800F0D4
:1026F00059F9002801D03B6833603F68464930688B
:1027000000F004FD011C381C00F092F9F621890547
:1027100000F0FCFC30602368404A9B089BB21380A9
:10272000108880B200F0C2FF3D4900F0EFFC3D4947
:1027300000F0FAFA3C4E3D4C30602068002100F079
:1027400031F9002801D033682360376832492068A6
:1027500000F0DCFC011C381C00F06AF9F621890548
:1027600000F0D4FC20602B68314A9B089BB2138098
:10277000108880B201F0A0FD2E4A2F4B01F002FB21
:1027800000222E4B01F0FEFA00222D4B00F0D6FF66
:1027900001F022FE2B4C2C4D20602868002100F017
:1027A00001F9002801D023682B6027681A4928689E
:1027B00000F0ACFC011C381C00F03AF9F621890548
:1027C00000F0A4FC28603068216800F09FFC01F054
:1027D000AFFD1E4A1E4B01F0D5FA01F0FDFD1D4B69
:1027E000186003B0F0BDC0468C060020644800109D
:1027F000CC470010DC47001090060020A006002007
:102800008C48001098060020780600209C060020C6
:102810000000204268060020000070415C06002095
:1028200030269F4A00002C474C060020500600200E
:102830005406002085EB51B81E8511400088C34026
:1028400000D089406C060020740600208DEDB5A0F4
:10285000F7C6B03E48060020F0B5474680B43C4B72
:1028600082B01C781F2C02D80134E4B21C703949A4
:10287000394A0B7A394D9B0098580B68C021890062
:102880008C4601939B7836491B079B0E63441B586B
:10289000344E9BB29B082B600B7A9B009A580B68B6
:1028A00001939B781B079B0E63449B582E4A9BB257
:1028B0009B08136010683368984600F0F7FE2B49B8
:1028C000071C404600F022FC011C381C00F0B0F848
:1028D000EE21890500F01AFC30602868356800F0A8
:1028E000E5FE234900F012FC291C00F01DFA214BE3
:1028F000214D18601E682149286800F007FC011C62
:10290000301C00F095F8F421890500F0FFFB2860E9
:1029100028681B4900F060F8002803D0194B1A788A
:10292000002A0DD02868184900F042F8002803D08A
:10293000144B1A78012A08D002B004BC9046F0BDAE
:102940001F2CEFD901321A70ECE700221A70F3E75E
:1029500094060020F8480010CC47001064060020C0
:1029600080480010140600207006002000007F43FD
:1029700000001B4584060020800600200000F8416E
:10298000002000451806002000C0F3448446081CBF
:102990006146FFE71FB500F073FB002801D400215A
:1029A000C8421FBD10B500F0F7FA4042013010BD1B
:1029B00010B500F065FB002801DB002010BD0120F0
:1029C00010BDC04610B500F05BFB002801DD002003
:1029D00010BD012010BDC04610B500F007FB002857
:1029E00001DC002010BD012010BDC04610B500F074
:1029F000FDFA002801DA002010BD012010BDC046FC
:102A00009E2110B5C905041CFFF7F0FF002803D173
:102A1000201C00F02BFE10BD9E21201CC90500F0DB
:102A2000A7FC00F023FE80231B069C466044F2E7CF
:102A3000F8B54A00430244004E02C50F240E281C7C
:102A40009B09120EC90FB7098D4240D0A01A002869
:102A500000DC84E0002A1CD1002F5CD15A0704D08E
:102A60000F221A40042A00D004338022D2041A40D4
:102A7000281C002A24D00134FF2C00D17BE09B01CC
:102A80005B0AE4B25B02E4055B0A2343C007184318
:102A9000F8BDFF2CE2D08022D204174301261B2868
:102AA00008DC391C20223E1CC140101A8640771ECB
:102AB000BE410E439B1B5A0133D4281C5A07CFD169
:102AC000DB08FF2C1ED05B025B0AE4B2DAE7A11A36
:102AD000002957DD002A3AD0FF2CBFD08022D20433
:102AE000174301261B2972DD9B195A01E5D50134D4
:102AF000FF2C00D187E001218A4A194013405B086E
:102B00000B43ABE7002B36D08022D20313435B028A
:102B10005B0AFF24B6E7013800283FD1DB1B5A01CE
:102B2000CBD59B019E09301C01F0E6FC05388640A0
:102B3000844223DC001B1F24321C431C201ADA4071
:102B40008640131C741EA6410024334386E7002FE1
:102B500000D183E70139002950D1DB19C5E70028EE
:102B600020D1621CD2B2012A5EDDDE1B720128D5A3
:102B7000FE1A0D1CD7E7FF24002383E7694B241AB4
:102B800033406BE7002958D1621CD1B201293CDDEA
:102B9000FF2A37D0FB185B08141C5FE7FF2C00D01E
:102BA0007CE75BE7002C1ED0FF2A23D08024E404BE
:102BB000404223431B285BDD0123FB1A141C0D1C20
:102BC000ADE7002EAFD100230020002478E73A1CA7
:102BD000CA40944620223E1C511A8E406246771EFF
:102BE000BE41164380E7002B3ED0C0430028E4D00E
:102BF000FF2ADFD13B1CFF240D1C2FE7FF2C00D048
:102C00006FE72BE7FF2400235AE7002C5AD1002B53
:102C10007FD0002F00D121E7DB195A0100D44CE707
:102C2000404A0134134019E7002C15D1002B2FD155
:102C3000002F5DD03B1C0D1C10E7002C21D1002B78
:102C400053D0C943002904D0FF2A4BD01B2957DD9C
:102C50000123DB19141C48E7002B22D1002F4AD096
:102C60003B1C0D1CFF24F9E63B1C141C0D1CF5E657
:102C70001D1C2024C540201A8340581E83412B432D
:102C80009BE7FF2A2ED08024E40449422343DDE75A
:102C9000002F00D1E2E6DA1B50013CD5FB1A0D1CD7
:102CA000DCE6FF24002F00D1D8E68022DB08D20327
:102CB000134204D0FE08164201D1331C0D1CDB0068
:102CC000FF24CBE6002B0DD0FF24002F00D1C5E65A
:102CD0008022DB08D2031342F1D0FE081642EED167
:102CE000331CECE73B1CFF24B8E63B1C141CB5E688
:102CF000231C0020E4E6802300209B04FF24DFE661
:102D00001E1C2024CE40611A8B40591E8B41334338
:102D10009FE73B1CA2E6131E00D0CEE60023002056
:102D2000CEE6C046FFFFFFFBF0B556464D465F4678
:102D30004446F0B443024500C70F83B08A465C0A9C
:102D40002E0EB94641D0FF2E26D080231B042343EC
:102D5000DC00002398469B467F3E53465B025D0A9B
:102D600053465A00DB0F120E9A4639D0FF2A33D051
:102D700080231B042B43DD0000237F3A5146B21A07
:102D800046467940081C01921E430F2E00D976E07A
:102D90007E4AB6009659B746002C30D10823984693
:102DA000063B9B46D9E780230021DB03FF245B021F
:102DB000E4055B0AC90723430B43181C03B03CBC62
:102DC00090469946A246AB46F0BD002C28D104237C
:102DD0009846033B9B46C0E7002D1FD1022302E02B
:102DE000002D11D10123B21A504646467840019277
:102DF0001E430F2E27D86649B60089598F460C23EB
:102E00009846093B9B46A8E7281C01F075FB7622F3
:102E1000431F52429D40121A0023AFE70323ADE740
:102E2000201C01F069FB431F9C4076235B421E1A65
:102E3000002398469B4690E70025D1469B465B467B
:102E40004846022B6FD10121FF2401400023AEE749
:102E50007E23019A5B429B1A1B2B6DDD01214B46A1
:102E6000194000240023A2E78023DB031C4249D140
:102E70008023DB0323435B025B0A391C96E7630173
:102E80006D01AB4237D389461A2001215B1B012417
:102E90001E1C49005B00002E01DBAB4201D35B1B13
:102EA000214301380028F3D1581E83410B431D1CD8
:102EB000019C7F34002CCBDD6B0704D00F232B400B
:102EC000042B00D004352B0104D5019A314B8032FC
:102ED000141C1D40FE2C07DD4B460121FF24194028
:102EE000002364E7251CAAE701214A46AB015B0ADF
:102EF000E4B211405BE7019A8946013A01921B2036
:102F00000021C4E71D4207D023435B025B0A391C42
:102F10004CE700256302ABD58023DB032B435B0228
:102F20005B0A514642E7032B25D0012BC0D101217A
:102F30000024014000233AE7291CD9402B1C019AA8
:102F40009E3293405D1EAB410B435A0704D00F22C3
:102F50001A40042A00D004335A0105D54B460121FA
:102F600001241940002322E701214A469B015B0A04
:102F7000114000241BE7802301214A46DB032B4339
:102F80005B020A405B0A111C10E7C04610490010A2
:102F900050490010FFFFFFF7430270B542004C009C
:102FA0005D0AC30F4802120E460A240EC90FFF2AFB
:102FB00005D0FF2C08D00120A2420BD070BD01200B
:102FC000002DFBD1FF2CF6D10120002EF6D10120DF
:102FD000A242F3D1B542F1D18B4205D0002AEDD106
:102FE000281C431E9841E9E70020E7E7F0B54302BB
:102FF0004D024A0044005E0A240EC30F6D0A120EF1
:10300000C90FFF2C0DD0FF2A31D0002C0DD17742F3
:103010007741002A23D1002D21D10020002F0BD190
:1030200007E0002E28D1FF2A21D0002A05D08B42AC
:1030300007D0584201231843F0BD002DF9D08B4230
:10304000F7D19442F5DC04DBAE42F2D80020AE4268
:10305000F2D25842434101205B421843ECE7002F73
:10306000E5D048424141012049420843E4E7002DB0
:1030700002D1002CCBD0DAE702204042DCE7C04688
:103080004302F0B542004C005E0AC30F4802120E24
:10309000450A240EC90FFF2A0FD0FF2C1AD0002A90
:1030A00010D177427741002C29D0002F17D0484209
:1030B00041410120494208430BE00220002E08D183
:1030C000FF2C07D0002C0AD1002D08D15842012333
:1030D0001843F0BD0220002DFBD1002AE1D08B4225
:1030E000F4D1A242F2DC04DBAE42EFD80020AE42C3
:1030F000EFD25842434101205B421843E9E7002DDB
:10310000D3D10020002FE4D1E0E7C046F0B55F4600
:1031100056464D464446F0B445024600C40F83B0BF
:103120000F1C6D0A360EA34645D0FF2E25D08023F6
:103130001B041D4300239A46ED007F3E01937B0252
:103140005B0A98467800FB0F000E994640D0FF2896
:1031500038D0802342461B041343DB0098460023EB
:103160007F384A46019F30186240411C1F430F2F91
:1031700069D87D4EBF00F659B746002D45D10823CA
:103180000193063B9A46DAE793465346022B2FD12A
:103190005B46012400251C40FF236D02DB056D0A00
:1031A000E4071D432543281C03B03CBC90469946C8
:1031B000A246AB46F0BD002D2CD104230193033B66
:1031C0009A46BCE743465A4253410322D31AC8E702
:1031D00042460123002AC4D0404601F08DF9424600
:1031E000431F9A4076235B42181A90460023B8E7A3
:1031F000032B00D1ADE0012B00D08CE05B465446A0
:103200001C40E4B200230025C7E70C230193093BCF
:103210009A4694E7281C01F06FF97626431F9D40DB
:1032200000237642361A01939A4688E780250024C7
:10323000ED03FF23B1E74546CB469A46A5E7454651
:1032400093469A46A1E743462C041B0C9C46230C4C
:10325000444626041C1C360C2F0C7443351C664651
:103260007D4373437743EB18260C9E19B54203D96F
:1032700080235B029C46674424043304240C1B19FE
:103280009D016C1EA5419B0E360C2B43BD19AD0153
:103290001D432B0104D5012368081D400543081C6C
:1032A000031C7F33002B2CDD690704D00F2129403C
:1032B000042900D00435290103D52C4B1D40031CE3
:1032C0008033FE2B17DD0124FF231440002564E723
:1032D0008020C003054209D04346034206D145463B
:1032E00005436D026D0A4C46FF2356E705436D0208
:1032F0006D0AFF2351E70124AD016D0ADBB21440D2
:103300004BE77E235B421B1A1B2B07DD01240023A6
:103310001440002541E7081C5A46C1E79E30291C8D
:103320008540D940681E85410D436B0704D00F23AB
:103330002B40042B00D004356B0104D5012401235C
:103340001440002529E70124AD016D0A1440002333
:1033500023E78023DB031D4301245B466D022340EA
:103360001C1C6D0AFF2318E790490010FFFFFFF7B0
:10337000F8B54A00430244004D02C00F240E061C5B
:103380009B09120EC90FAD09FF2A00D175E0012774
:103390007940884250D0A01A002800DC8FE0002A33
:1033A0001ED1002D00D075E05A0704D00F221A401C
:1033B000042A00D0043380220120D2041A40304075
:1033C000002A32D00134FF2C00D184E09B015B0A3B
:1033D000E4B25B02E4055B0A2343C0071843F8BD6F
:1033E000FF2CE1D08022D20415431B287ADD012571
:1033F0005B1B5A015DD59B019F09381C01F07CF8CD
:1034000005388740844269DC001B1F243A1C431C9A
:10341000201ADA408740131C7C1EA74100243B433E
:10342000C2E7131E45D100230020DB08FF2C28D063
:103430005B025B0AE4B2CCE7A11A00295BDD002A3B
:103440002ED0FF2CB0D08022D20415431B2974DC6F
:103450002F1C2022CF40511A8D40691E8D413D43C3
:103460005B195A0125D50134FF2C74D001217E4A05
:10347000194013405B080B4396E7002D00D088E706
:1034800085E7002B27D08022D20313435B025B0A1F
:10349000FF249EE701380028AAD0FF2CA5D183E79E
:1034A000002D00D180E701390029D9D0FF2CCDD1E2
:1034B0007AE75A0700D079E701203040B5E70028C5
:1034C00025D1621CD2B2012A55DD5F1B7A012DD5B0
:1034D000EF1A0E1C91E7FF2400237AE7624B241AAF
:1034E0003B4061E7291C2022C140101A8540681E1C
:1034F00085410D437CE7002946D1621CD1B20129E8
:103500002BDDFF2A26D0EB185B08141C4CE7002C9F
:1035100015D0FF2A1AD08024E404404223431B28FC
:103520004DDD0123EB1A141C0E1C62E7002F00D0A6
:1035300063E700230020002477E7012590E7002BB4
:1035400039D0C0430028EDD0FF2AE8D12B1CFF243E
:103550000E1C29E7FF24002367E7002C5AD1002B1B
:103560007FD0002D00D11FE75B195A01A1D53E4A3B
:103570000134134018E7002C15D1002B2FD1002D5A
:103580005ED02B1C0E1C0FE7002C21D1002B54D039
:10359000C943002904D0FF2A4CD01B2958DD012340
:1035A0005B19141C5DE7002B23D1002D4BD02B1C85
:1035B0000E1CFF24F8E62B1C141C0E1CF4E61E1C2B
:1035C0002024C640201A8340581E83413343A9E774
:1035D000FF2A2FD08024E40449422343DDE7002D55
:1035E00000D1E1E65A1B500100D41AE7EB1A0E1C79
:1035F000DAE6FF24002D00D1D6E68022DB08D203D4
:10360000134204D0ED08154201D12B1C0E1CDB0027
:10361000FF24C9E6002B0DD0FF24002D00D1C3E606
:103620008022DB08D2031342F1D0ED081542EED11F
:103630002B1CECE72B1CFF24B6E62B1C141CB3E65A
:10364000231C0020F1E6802300209B04FF24ECE6ED
:103650001F1C2024CF40611A8B40591E8B413B43D5
:103660009EE72B1CA0E6C046FFFFFFFB4202510A6B
:103670004200C30F120E00207E2A0DDD9D2A0CDCB5
:10368000802000040143952A0ADC9620821AD1404A
:103690000A1C58424240D0187047034A9818FBE76A
:1036A000963A91400A1CF4E7FFFFFF7F10B5041E15
:1036B00035D000F021FF9E21091A962909DC08283F
:1036C00030DD021C231C083A93405B025B0AC8B23F
:1036D00020E099290CDD0522231C121AD3401A1C64
:1036E000031C1B339C40231C5C1EA34113431C1C66
:1036F000052801DD431F9C400F4B2340620704D087
:103700000F221440042C00D004335A010ED49B0124
:103710005B0AC8B25B025B0AC005184310BD0020FB
:103720000023F7E763025B0AC8B2F3E79F21024A6E
:10373000091A1340EBE7C046FFFFFFFBF0B55F46F9
:1037400056464D464446F0B40F0387B098464D00A8
:103750003B0BCC0F061C924681469B466D0D019497
:103760006BD0664B9D4235D080275B467F031F435D
:10377000F3009946624BFF00400F9C46074300232D
:10378000BB46002665440093424617035000D20F03
:1037900053463F0B400D904600D172E0574A90428D
:1037A00067D080235B031F435346554A5B0FFF00DE
:1037B0001F43944653460021DB006044424662406A
:1037C00092462D1A0E430F2E00D9A1E04D48B600A7
:1037D000805987465B461E4300D076E000239B4617
:1037E0009946023308260093CEE799464346BB46E6
:1037F00001930091009B022B6BD1019B9A46002103
:1038000053460122002789461A403C4B00213F03C2
:103810000C0D24053F0B27433B4C1B0527401F4342
:103820007F00D2077F0817434846391C07B03CBCCD
:1038300090469946A246AB46F0BD03433ED05B4658
:10384000002B00D19CE1584600F056FE2823311C85
:103850001B1A021C5F46D940083A97400B1C964041
:103860003B439B46B1460023284D00262D1A00936A
:103870008AE7524603213A43A0D1002700230221C0
:103880009CE752463A4315D0002F00D185E1381C01
:1038900000F032FE021C28215046891A131CC84031
:1038A0005146083B99409F400B1C07431748002195
:1038B000801A83E70027002301217FE700239B462E
:1038C00099460133042600935EE703230C260093F8
:1038D0005AE7032B00D13CE2012B00D0BFE11A1CB8
:1038E000019B1A4000210023002789468EE7002310
:1038F0008027994600223F03004B87E7FF0700001F
:1039000001FCFFFFD0490010FFFF0F800DFCFFFFFF
:10391000BB4500D951E100D14CE14A460392002257
:103920005C469046013D180E3F0238431B0201934E
:10393000030C994603041B0C4946061C201C1F1C43
:103940000093FDF721FE021C7A4302904946201C99
:10395000171CFDF723FE039B09041B0C19438F4220
:103960000CD9029B8919013B8E4200D952E18F424A
:1039700000D84FE1029B8919023B0293CC1B201C0B
:103980004946FDF701FE009F834647434946201CF8
:10399000FDF704FE039A0B041404240C23439F42F6
:1039A0000DD95A469B19013A9E4200D930E19F42F7
:1039B00000D82DE10222524294469B19E344029A18
:1039C000DB1B17045A463A439346019C170C220C02
:1039D000101C04925A4611042204120C141C090CE7
:1039E0007C4305924A43414347436118100C091830
:1039F0008C4203D980204002844667440C0C120498
:103A00000804120C3C198118A34200D2E5E000D151
:103A1000DFE01F1B43465C1AA04592415242BF1A89
:103A2000B74200D10EE1381C4946FDF7ADFD009BC1
:103A3000029043434946381C9846FDF7AFFD230CDE
:103A40000F041F43B8450CD9029BBF19013BBE426E
:103A500000D9FBE0B84500D8F8E0029BBF19023B53
:103A600002934346FF1A4946381CFDF78DFD009B23
:103A7000039043434946381C9846FDF78FFD2404C4
:103A80000904240C214388450CD9039B8919013B67
:103A90008E4200D9DCE0884500D8D9E0039B891923
:103AA000023B03934346C91A029B039A1B04059CDD
:103AB0001A43100C13049146221C049F1B0C5A43FA
:103AC00044437B437843E318170CDB199C4203D92A
:103AD00080246402A44660441C0C12041B04120CD3
:103AE00000199B18814200D296E000D1FCE04A46C2
:103AF00001231A4391469B4BEB18002B00DC99E005
:103B00004A4652070AD00F2249460A40042A05D0E5
:103B10000431494592418946524293445A46D20162
:103B200006D55A46904B1A4080239346DB00EB188B
:103B30008E4A934200DD62E64A465946D20849075A
:103B400011435A4689465702514601225B053F0BF5
:103B50005B0D0A405AE680205A460003024208D014
:103B6000074206D107433F0399463F0B4246804B2D
:103B70004CE65F4607433F033F0B221C7C4B45E668
:103B800000F0BAFC031C2030272800DC5EE6083B6E
:103B90009E400023B346994665E6504600F0ACFCD3
:103BA000021C2032272A00DC75E657460838874079
:103BB00000237BE6994500D2AFE65A4659465408A1
:103BC0004A46C8075208024303924A46D207904623
:103BD000A9E60027884500D31CE7019F5A46BC464A
:103BE000E044B845BF417F42BF19FF18013ABE42C9
:103BF00006D2BC425FD800D19FE03F1B934609E745
:103C0000B742FAD1019B4345F3D9371B934601E7ED
:103C10009346D4E60293B1E64A468919013A8E42A8
:103C200018D99146814200D061E7019A9A4200D0AA
:103C30005DE760E74F4F7F1B382F13DD01225346AE
:103C40001A404FE601235B42994654E7029308E786
:103C5000039327E788423CD874D0914647E7019BFD
:103C60009A4648E71F2F44DC434B4A469C465B4636
:103C70006544FA40AB4013434A46AA40151C6A1EED
:103C800095415A46FA402B43171C5A0709D00F2278
:103C90001A40042A05D01A1D9A429B415B42FF1824
:103CA000131C3A023ED55346012200211A40002738
:103CB00001238946AAE502235B429C46019AE3441C
:103CC0009446E04490459B415B429B19DF193F1BA2
:103CD000A0E6019F4A467C00BC42BF417F42BF191B
:103CE000023AC91901949CE7002B95D10022019258
:103CF0009BE75A46214B5B1BDA40202F27D0204BF5
:103D00009C465B466544AB4049460B43591E8B417C
:103D10001343072200271A4007D00F2200271A401A
:103D2000042AB8D17A077F023F0BDB081343994678
:103D3000012253461A40002368E54145BBD893460B
:103D4000002767E6019C9C42C3D391466DE70023A0
:103D5000DAE780275B463F031F433F033F0B019A8F
:103D6000034B53E5FF030000FFFFFFFEFE070000CB
:103D7000FF07000002FCFFFF1E040000E2FBFFFF44
:103D80003E040000F0B55F4656464D464446F0B44A
:103D9000051C061C080387B099464F00030BCC0F87
:103DA00092469B467F0D019467D06C4B9F4236D064
:103DB00080205B4640031843C0006B0F1843684BDC
:103DC00083469C4600239846EE00674400934B468A
:103DD00049461D03C90F5B0052462D0B5B0D8946FA
:103DE00000D16EE05D498B4264D080205C49400385
:103DF0008C4600210543ED00500F0543D20063447B
:103E00004846FF187B1C9A46009B604002900B437B
:103E10000F2B00D9ACE053489B00C3589F465B462C
:103E20001D4300D082E00823009300239B46023309
:103E300000269846CBE7029B01934346022B59D1BB
:103E4000012400250026019B1C40444B00212D032A
:103E50000A0D12052D0B1543434A1B0515401D4342
:103E60006D00E4076D082543301C291C07B03CBCDD
:103E700090469946A246AB46F0BD2B434ED05B46DA
:103E8000002B00D185E1584600F036FB021C2823A8
:103E9000291C9B1A161C5846D940083EB0400B1CE2
:103EA000B54003439B462E1C0023304F0093BF1A9E
:103EB00098468CE7514629432ED100250022022145
:103EC0009EE75146294323D0002D00D154E1281C00
:103ED00000F012FB031C28215046C91A1A1CC840C6
:103EE0005146083A914095400A1C05431F4800215D
:103EF000C31A85E7032B00D1C2E1012B00D06DE18D
:103F00004446019B00251C40E4B2002300269DE7A7
:103F100000250022012173E7032171E704230093A8
:103F200000239B4601330026984650E70C2300935C
:103F3000093B98464BE7802500242D030026074BBC
:103F400084E74B46AB46161C0193884675E7029BF7
:103F5000AB46161C019388466FE7C046FF0700007A
:103F600001FCFFFF104A0010FFFF0F800DFCFFFF58
:103F7000330C3604360C9C46331C140C1204120C01
:103F800053439846634653439946634663430193BC
:103F9000331C41466343090C4B445B18994505D9D2
:103FA000802040028146019949440191190C0391F6
:103FB00041460904090C1B045B1804932B0C98461A
:103FC000331C2D04290C4B43604600934346654641
:103FD00058435E43009B4D431B0C9946AE194E441B
:103FE0008446B54203D980235B029946CC44350C04
:103FF0002B1C0398634484460593009B36041B04E2
:104000001B0CF3189C446046039058460504060CAC
:10401000280C84465043351C814660466543444322
:104020004846000C8346724314195C44A24203D9EB
:104030008022520293465D44220CAD184A46120477
:10404000120C24044046A41862464A437143464376
:1040500060460096464670438046100C844688446D
:10406000E044414505D9802149028C4600996144CC
:104070000091019803998446614499429B415B42B7
:1040800099460598434684461204120C1B049B185B
:1040900063449C46AB4683429B4140460A19CC444C
:1040A000A2428941E344CC45B6415C46000C8046BF
:1040B000494276425B426418334398448C428941BA
:1040C000AB459B4149425B4219430D1C009B454453
:1040D000EE187602E50D2E43B346049B56021E43AE
:1040E000731E9E415B46D20D324366021643DB01CE
:1040F0000AD50123334076081E435B46DB071E4387
:104100005B465B089B465746634BFB18002B5ADD0A
:10411000720709D00F223240042A05D0321DB24264
:10412000B6417642B344161C5A46D20106D55A46C9
:104130005A4B1A4080239346DB00FB18584A93429F
:1041400034DD0124029B00251C400026554B7DE6F2
:1041500080205B460003034208D0054206D1054398
:104160002D032D0B4C46161C4E4B6FE65D4605434A
:104170002D032D0B4B4B69E6504600F0BDF9031C97
:104180002033272B00DCA6E6554608388540002260
:10419000ACE6281C00F0B0F9021C2032272A00DC13
:1041A00075E6083885400026AB467DE65A46F60897
:1041B000520716435A4601245502029A5B052D0BFD
:1041C0005B0D144042E6384DED1B382D0ADD01240D
:1041D000029B00251C400026002337E6019B574622
:1041E000029391E71F2D25DC304B321C9C4667441F
:1041F000BE405B46BB40371CEA407E1EB7411343BE
:104200003B431E1C5B46EB401D1C730709D00F236C
:104210003340042B05D0331DB342B6417642AD196D
:104220001E1C2B0220D50124029B00251C400026C9
:1042300001230BE65A461E4BDB1BDA40131C202DD4
:104240001CD01C4A94465A466744BA40171C3E4349
:10425000721E96411E4307230025334007D00F23CB
:1042600000253340042BD6D16B076D022D0B0124A2
:10427000F6081E43029B1C400023E7E50027E6E703
:1042800080255B4601242D031D43019B2D03234004
:104290001C1C2D0B034BD9E5FF030000FFFFFFFEA5
:1042A000FE070000FF07000002FCFFFF1E040000E5
:1042B000E2FBFFFF3E04000038B5041E16D0C50F18
:1042C00000D04442201C00F017F9174B1B1A0A2893
:1042D00021DC021C211C153291400A1C0B21081AFA
:1042E000C4405B052403240B5B0D03E00025002381
:1042F000002400220021101C24030A0D1205240BA7
:1043000014430A4A1B0514401C436400ED0764086B
:104310002C43211C38BD0B3884405B052403240B3F
:104320005B0D0022E6E7C0461E040000FFFF0F8081
:104330004200120E511C38B5C9B243025D0AC40FC7
:10434000012915DDE02189008C466D071B0B6244B5
:104350000021281C0D0D2D052B431C4D52052B4013
:10436000520813435B00E4075B082343191C38BD64
:10437000002A15D1002D1FD0281C00F0BDF80A28F6
:104380001DDC0B232A1C1B1ADA40131C021C1532DD
:1043900095400F4A1B03121A52051B0B520DD7E70B
:1043A000002D06D080221B0B120313436D07094A10
:1043B000CEE7084A0023CBE700220023C8E7031C0E
:1043C0000B3B9D402B1C0025E3E7C046FFFF0F8001
:1043D00089030000FF07000070B50B034D00440F78
:1043E0006D0D5B0A23436C1C6405C90FC200640D8C
:1043F000012C2ADD3B4C2C19FE2C1ADC002C35DD5F
:104400008001451EA841DB000343520F13435A07A6
:1044100004D00F221A40042A00D004338022D20490
:104420001A4027D00134FF2C03D09B015B0AE4B271
:1044300001E0FF2400235B02E4055B0A23435B00E9
:10444000C9075B080B43181C70BD002D06D1134330
:104450000ED100245B025B0AE4B2ECE71A43E8D019
:104460008020DB0080040343FF24D0E717340CDAFC
:1044700005230024DB08FF2CECD1002B2DD080225B
:10448000D20313435B025B0AD5E780241648240459
:104490002343401B1F280DDC144CA4466544AB404D
:1044A0001C1C131CAB405D1EAB41C2402343134395
:1044B0000024ACE71E1C0E4C641BE640341C202874
:1044C0000DD00C4884466544AB401D1C2A43531E46
:1044D0009A41131C2343002499E70023ABE70025EE
:1044E000F4E7C04680FCFFFF9E03000082FCFFFF54
:1044F0007E030000A2FCFFFF1C2101231B04984245
:1045000001D3000C10391B0A984201D3000A083964
:104510001B09984201D30009043902A2105C40181B
:104520007047C046040302020101010100000000BF
:10453000000000000E4B70B500251E1C0D4CE41A47
:10454000A410A54204D0AB00F35898470135F8E712
:10455000FDF7E0FA084B00251E1C084CE41AA410D5
:10456000A54204D0AB00F35898470135F8E770BD79
:104570002006002020060020200600202006002023
:1045800003000000030000000C0000000C0000000D
:10459000003000000030000000300000003000005B
:1045A00000030000000C00000000000000000000FC
:1045B00002000000020000000C0000000C000000DF
:1045C0000C0000000C000000080000000A000000C1
:1045D000600900000808021000020000D045001029
:1045E000D51B0010000000000000000000000000CB
:1045F00000000000000000000C4600100002020451
:1046000004000000B80000000100000000000440A9
:104610000700000004460010000000000100000038
:10462000000001000000010001008713C40901001F
:10463000000000000003000003000000D04600104E
:10464000CC460010D446001000000000000000001E
:104650000000000000000001000000000000000455
:10466000E046001000000000000000000000000014
:1046700000000000A4050020000001000100F90076
:104680007D000100000000000002000002000000A8
:10469000244600107846001020460010000000005C
:1046A0000000000000000000000000010000000009
:1046B00000000008D84600100000000000000000C4
:1046C0000000000000000000A40500200000010020
:1046D00000000100000001000000000006000000D2
:1046E0000000000006000000120301001403010096
:1046F00000000000000000000000000000000000BA
:1047000000000000000000000000000000000000A9
:104710000000000000000000000000000000000099
:104720000000000000000000000000000000000089
:1047300000010440800000000000010004000000AF
:10474000000104408000000000000100050000009E
:104750000000044080000000000001000200000092
:104760000001044080000000000001000300000080
:104770000001044080000000000001000200000071
:104780000000044010000000000000000A000000CB
:104790000000044000000000000000000B000000CA
:1047A0000000044000000000000000000C000000B9
:1047B0000000044010000000000000000D00000098
:1047C0000001000000000100000000000004034898
:1047D00000080348270000002000000038480010AF
:1047E000104800100106000000002A000000000030
:1047F0000000000001FF0000A50000000000038091
:1048000000000000004100000400000000000380E0
:104810000000030000000000004000000400000051
:104820000000000000000000000000000200000086
:1048300000480010010000000000240000000000FB
:104840000000000001FF0000260000000000000042
:1048500000000000000000000200000014480010EA
:104860000100000070480010F4480010010500002D
:1048700000002B00000000000000000001FF00000D
:10488000C8480010FC47001000000000E847001076
:104890000C4800100107000000000300FC05002088
:1048A00008060020F122001020480010E805002032
:1048B00003010303010000000000270000000000C6
:1048C00000000000010600000000290000000000B8
:1048D0000000000001FF0000EC050020F4050020AE
:1048E000052300104C480010E905002003000202D7
:1048F0000100000000000300B848001098480010B4
:1049000000010000A1000000380000006600000067
:104910007E2E0010462E0010622E00103A2E00103F
:10492000622E0010A62D0010622E00103A2E0010EC
:10493000462E0010462E0010A62D00103A2E001014
:10494000E42E0010E42E0010E42E0010682E00105B
:10495000462E0010462E00102E2F0010382E00106C
:104960002E2F0010A62D00102E2F0010382E001014
:10497000462E0010462E0010A62D0010382E0010D6
:10498000E42E0010E42E0010E42E0010122F001070
:10499000463200103E3200103E3200103632001017
:1049A00088310010883100102C320010363200108F
:1049B000883100102C32001088310010363200107F
:1049C0008A3100108A3100108A310010D032001074
:1049D00010390010FE370010E4380010EA370010DC
:1049E000E4380010EE380010E4380010EA37001008
:1049F000FE370010FE370010EE380010EA370010C6
:104A0000F4370010F4370010F4370010563B001054
:104A1000703F00104E3F00104E3F0010423F00100C
:104A2000363E0010363E0010363F0010423F001068
:104A3000363E0010363F0010363E0010423F001058
:104A40003A3E00103A3E00103A3E0010504100102D
:104A50002C48874600000000000000000000000015
:104A60000000000000000000000000000000000046
:104A700025488746000000000000000023488746C4
:104A80002348874623488746234887462348874646
:104A90002348874623488746234887462348874636
:104AA0002348874600000000224887462248874660
:104AB000224887462248874622488746224887461A
:104AC000224887462248874622488746224887460A
:104AD00022488746224887462248874622488746FA
:104AE00022488746224887462248874622488746EA
:104AF0002248874622488746000000000000000048
:104B00002048874699100010991000109910001045
:104B100099100010991000109910001099100010B1
:104B200099100010991000109910001099100010A1
:104B30009910001099100010991000109910001091
:104B40009910001099100010991000109910001081
:104B50009910001099100010592800109910001099
:104B6000692600109910001099100010991000107B
:104B70009910001099100010991000109910001051
:084B80009910001099100010BB
:104B880000020048DC4500102806002028460010D6
:104B98000000044800010448000000000100000073
:104BA80002000000040000000000000000000000F7
:104BB800881300007C4600100000044800020448E6
:104BC800000100001000000020000000400000006C
:104BD8000000000000000000881300000090D003CF
:104BE8000100000000000448000000000004034821
:104BF800F046001001020000B4050020DC0500208A
:104C08001847001000000348004003480000000057
:104C180002010000000803480447001001020000D8
:104C280002020000F84800108048001004490010F3
:104C3800D847001064480010DC4700108C4800106A
:104C4800F847001048480010D447001000005C44A2
:084C58000100000000409C4631
:0400000510001019BE
:00000001FF
