:020000041000EA
:101000004811002019100010000000009910001075
:1010100000040100000100001149124A124B00F0C7
:1010200018F8124880471249124A134B00F011F881
:101030001249134A134B00F00CF81349134A0020CD
:10104000521A02DD043A8850FCDC114880471148EE
:1010500080479B1A03DD043BC858D050FBDC704727
:10106000C0B900100C000020440100209D100010A9
:10107000F8BA0010481100200C130020BCBC00106E
:101080000C1300200C1300200C130020C0180020AB
:10109000D17F001065570010FEE7000080B500AF5B
:1010A00003F0A2FD03F0E6FDBD4680BD80B500AFB4
:1010B000124B1A68FF231B0213401A0A104B1A60C6
:1010C0000E4B1B68FF221A400E4B1A600C4B1B681C
:1010D000002B0ED00A4B1B681A020A4B1B68D31850
:1010E0000948191C01F058F9031C5A00074B1A60F3
:1010F00002E0064B064A1A60BD4680BD000301406F
:101100000C13002010130020000024F4FC3F0020EA
:101110000048E80190B585B000AFF8607A600B2315
:10112000FB180A1C1A700B23FB181B789B08DBB2F8
:10113000181C0B23FB181B789B08DBB21A1CFB68DE
:1011400004329200D3580B22BA18127803210A40B5
:10115000D200111CF8228A40D2431A40111CFB68AD
:10116000021D9200D150FB685B6F0B22BA181278F7
:101170005200111C03228A40D2431A40FB685A676E
:101180000B23FB181B78DB08DBB2181C0B23FB18A6
:101190001B78DB08DBB21A1CFB6810329200D358B4
:1011A0000B22BA18127807210A409200111C04225F
:1011B0008A40D2431A40111CFB68021C1032920074
:1011C000D1500B23FB181B78DB08DBB2181C0B2358
:1011D000FB181B78DB08DBB21A1CFB68103292008C
:1011E000D2587B685B781C1C0B23FB181B780721EB
:1011F0000B409B009C40231C1A43111CFB68021CE3
:1012000010329200D150FB681D4A93420BD1FB680B
:101210001B6E0B22BA181278012191400A1CD2438E
:101220001A40FB681A667B685A680B23FB181B7808
:101230009A40FB685A600B23FB181B789B08DBB2B3
:10124000181C0B23FB181B789B08DBB21A1CFB68CD
:1012500004329200D2587B681B781C1C0B23FB18AD
:101260001B7803210B40DB009C40231C1A43111CFC
:10127000FB68021D9200D150BD4605B090BDC0462E
:101280000002044080B500AF024BC3225A62BD4643
:1012900080BDC0460000014080B500AF054BC022B4
:1012A0005A62C046034B5B6A04221340FAD1BD4622
:1012B00080BDC0460000014080B582B000AF7860BC
:1012C000FFF7EAFF0C4A0C4B1B680C4919407B687E
:1012D0009B6819437B685B680B431360FFF7D2FF81
:1012E0007B685B781A1C7B681B78101C191C00F04B
:1012F00039F8BD4602B080BD00030140FFFFF0FF9A
:1013000080B582B000AF021CBB1D1A80FFF7C4FF7E
:10131000094B094A1169BA1D12880A431A61C0466D
:10132000054B1A688023DB051340F9D1FFF7AAFFAC
:10133000BD4602B080BDC0460003014080B582B00A
:1013400000AF021CBB1D1A80054B9B68BA1D12889A
:1013500013405A1E9341DBB2181CBD4602B080BD3B
:101360000003014080B584B000AF78603960FFF7BA
:1013700093FF214B1A68FF231B0213401B0AFB60DB
:101380001D4B1D4A12681D4911403A680A431C4909
:101390000A431A60C046184B1A688023DB051340C5
:1013A000F9D1FA687B689A4206D8FA687B68101C03
:1013B000191C00F053F805E0FA687B68101C191C32
:1013C00000F022F80C4B0C4A12680E4911407A6862
:1013D00012020A430A490A431A60C046064B1A68B9
:1013E0008023DB051340F9D1FFF74CFFFFF75EFECA
:1013F000BD4604B080BDC0460003014000FF0FC0E1
:101400000000F03FFF000FC080B582B000AF7860F1
:10141000396014E07B689B087B600D4B0C4A1268B6
:101420000C4911407A6812020A430B490A431A60B8
:10143000C046074B1A688023DB051340F9D13B688F
:101440009A007B689A42E5D3BD4602B080BDC04693
:1014500000030140FF000FC00000F03F80B582B0E4
:1014600000AF7860396019E07B68002B01D101235F
:101470007B607B689B007B600C4B0C4A12680C49BC
:1014800011407A6812020A430A490A431A60C046A8
:10149000064B1A688023DB051340F9D17B689A005C
:1014A0003B689A42E0D3BD4602B080BD00030140D4
:1014B000FF000FC00000F03F80B500AF024B1B687B
:1014C000181CBD4680BDC046FC3F002080B582B0E0
:1014D00000AF78607B68DB68802252001A437B682B
:1014E000DA60BD4602B080BD80B582B000AF7860E2
:1014F0007B68044A934202D10420FFF701FFBD46F6
:1015000002B080BD0000044880B582B000AF7860B2
:101510007B68181CFFF7E8FFBD4602B080BDC046DF
:1015200080B584B000AF78600A1CFB1C1A707B6821
:10153000181CFFF7E9FF7B68181CFFF7C7FF7B68E3
:101540001B68FB60FB68074A1340FB60FB1C1B78B1
:101550009B03FA681343FB607B68FA681A60BD4618
:1015600004B080BDFF3FFFFF80B584B000AF78605E
:1015700039607B681B68FB603B681B0CDA43FB68C7
:101580001340FB603B681B041B0CFA681343FB60B1
:101590007B68FA681A60BD4604B080BD80B582B031
:1015A00000AF786039603B681A687B685A613B68B5
:1015B0005B799B06DB0FDBB21A057B685A603B68E0
:1015C0001B791B071B0FDBB21A1C7B685A623B6836
:1015D0005B791B071B0FDBB21A1C7B681A623B6826
:1015E0005B79DB06DB0FDBB21A1C7B689A613B6818
:1015F0001B791B061B0FDBB21A1C7B68DA62BD4627
:1016000002B080BD80B584B000AF7860081C111CAA
:10161000FB1C021C1A70BB1C0A1C1A707B685B68DE
:10162000BB60BB6803229343BB60FB1C1B78BA689A
:101630001343BB607B68BA685A607B685B69FB6078
:10164000BB1C1B78012B05D1FB688022D200134301
:10165000FB6003E0FB68044A1340FB607B68FA68A8
:101660005A61BD4604B080BDFFFBFFFF80B584B06A
:1016700000AF7860081C111CFB1C021C1A70BB1CFC
:101680000A1C1A707B685B68FB60FB680C22934342
:10169000FB60FB1C1B789B00FA681343FB607B68B4
:1016A000FA685A607B685B69BB60BB68074A134095
:1016B000BB60BB1C1B781B02BA681343BB607B6812
:1016C000BA685A61BD4604B080BDC046FFFCFFFF4A
:1016D00080B584B000AF78600A1CFB1C1A707B6870
:1016E0005B68FB60FB68074A1340FB60FB1C1B78D0
:1016F0001B03FA681343FB607B68FA685A60BD46B7
:1017000004B080BDFFCFFFFF90B585B000AF78601B
:101710000C1C101C191CFB1C221C1A70BB1C021C6C
:101720001A707B1C0A1C1A707B685B69FB607B6803
:101730005B68BB60BB68174A1340BB60FB1C1B782F
:101740009B04BA681343BB607B68BA685A60BB1CD1
:101750001B78012B05D1FB68802252041343FB60E8
:1017600003E0FB680C4A1340FB607B1C1B78002BDA
:1017700005D0FB68802212041343FB6003E0FB6882
:10178000064A1340FB607B68FA685A61BD4605B0A3
:1017900090BDC046FFFFF3FFFFFFFFFEFFFF7FFF8F
:1017A00080B584B000AF78600A1CFB1C1A707B689F
:1017B0005B68FB60FB68074A1340FB60FB1C1B78FF
:1017C0009B03FA681343FB607B68FA685A60BD4666
:1017D00004B080BDFF3FFFFF80B584B000AF7860EC
:1017E0000A1CFB1C1A707B685B68FB60FB68074A7D
:1017F0001340FB60FB1C1B781B02FA681343FB6061
:101800007B68FA685A60BD4604B080BDFFFCFFFFEC
:1018100080B584B000AF78600A1CFB1C1A707B682E
:101820005B68FB60FB68074A1340FB60FB1C1B788E
:101830009B02FA681343FB607B68FA685A60BD46F6
:1018400004B080BDFFF3FFFF80B584B000AF7860C7
:101850007B685B68FB60FB68064A1340FB60FB68C3
:10186000802252021343FB607B68FA685A60BD46CF
:1018700004B080BDFFFFFEFF80B584B000AF78608C
:10188000081C111CFB1C021C1A70BB1C0A1C1A70C1
:101890007B685B68BB60BB68174A1340BB60BB6872
:1018A000802292021343BB607B68BA685A607B68EF
:1018B0005B69FB60BB1C1B78002B05D0FB6880229A
:1018C00092031343FB6003E0FB680C4A1340FB6088
:1018D000FB1C1B78012B05D1FB688022D20313432C
:1018E000FB6003E0FB68064A1340FB607B68FA6814
:1018F0005A61BD4604B080BDFFFFFDFFFFFFDFFF63
:10190000FFFFBFFF80B586B000AFF860B9607A60B6
:10191000FB681B687B617B692A4A13407B61BB685B
:101920005B789B047A6913437B617B69264A134089
:101930007B617B685B781B057A6913437B617B69FC
:10194000224A13407B61BB689B78DB057A691343AD
:101950007B617B691E4A13407B617B689B781B0619
:101960007A6913437B617B691A4A13407B61BB68C8
:10197000DB78DB067A6913437B617B69164A134087
:101980007B617B68DB785B077A6913437B617B69EA
:10199000F02293437B61BB681B781B017A69134378
:1019A0007B617B690D4A13407B617B681B781B025E
:1019B0007A6913437B61FB687A691A60BD4606B099
:1019C00080BDC046FFFFF3FFFFFFCFFFFFFF7FFF9C
:1019D000FFFFFFFEFFFFFFE7FFFFFF9FFFF0FFFF9F
:1019E00080B588B000AFF8607A600B23FB180A1C42
:1019F0001A701F23FB180B22BA181278013A1A70BA
:101A0000FB681B68BB611F23FB181B78DB18DAB26D
:101A10001723FB1810321A701723FB181B780322A8
:101A20009A40131CDA43BB691340BB617B685B7847
:101A30001A1C1723FB181B789A40131CBA6913430E
:101A4000BB611723FB181F22BA18127816321A70BE
:101A50001723FB181B7801229A40131CDA43BB6939
:101A60001340BB617B689B781A1C1723FB181B78FB
:101A70009A40131CBA691343BB611F23FB181B78E0
:101A8000DB18DAB21723FB1819321A701723FB1868
:101A90001B7803229A40131CDA43BB691340BB61D5
:101AA0007B68DB781A1C1723FB181B789A40131CE1
:101AB000BA691343BB611723FB181F22BA181278A7
:101AC00092001A701723FB181B780F229A40131CE0
:101AD000DA43BB691340BB617B681B781A1C172370
:101AE000FB181B789A40131CBA691343BB61FB684F
:101AF000BA691A60BD4608B080BDC04680B586B0E0
:101B000000AF7860081C111CFB1C021C1A70BB1C67
:101B10000A1C1A707B68A8229B58FB60FB1C1B7870
:101B2000092B1AD89A001A4BD3181B689F46032317
:101B30003B6100237B6116E00C233B6102237B6148
:101B400011E0C0239B003B6108237B610BE0C023B5
:101B50001B013B610A237B6105E0C0239B013B61C4
:101B60000C237B61C0463B69DA43FB681340FB6092
:101B7000BB1C1A787B699A40131CFA681343FB60FC
:101B80007B68A821FA685A50BD4606B080BDC046A1
:101B9000B8B1001080B582B000AF78607B68DB68B8
:101BA000802252001A437B68DA60BD4602B080BDD5
:101BB00080B582B000AF78607B6801221A61BD46B3
:101BC00002B080BD80B582B000AF78607A68A02393
:101BD000DB059A4202D10220FFF792FBBD4602B01C
:101BE00080BDC04680B582B000AF78607B68181CAD
:101BF000FFF7E8FFBD4602B080BDC04680B584B0A7
:101C000000AF78600A1CFB1C1A707B68181CFFF779
:101C1000E9FF7B68181CFFF7BDFF7B681B68FB6052
:101C2000FB68074A1340FB60FB1C1B789B03FA68A8
:101C30001343FB607B68FA681A60BD4604B080BD40
:101C4000FF3FFFFF80B582B000AF786039607B68EE
:101C5000181CFFF7ADFF3B681A687B685A613B6848
:101C60005B7BDB06DB0FDBB21A057B685A603B68E7
:101C70001B7B1B071B0FDBB21A1C7B685A623B687D
:101C80001B7B1B061B0FDBB21A1C7B68DA623B68EE
:101C90005B7B1B071B0FDBB21A1C7B681A623B685D
:101CA0005A687B689A613B689B6814225A407B683B
:101CB0009A64BD4602B080BD80B584B000AF786044
:101CC00039607B681B68FB603B681B0CDA43FB6870
:101CD0001340FB603B681B041B0CFA681343FB605A
:101CE0007B68FA681A60BD4604B080BD80B584B0D8
:101CF00000AF7860081C111CFB1C021C1A70BB1C76
:101D00000A1C1A707B685B68BB60BB680322934344
:101D1000BB60FB1C1B78BA681343BB607B68BA6866
:101D20005A607B685B69FB60BB1C1B78012B05D18B
:101D3000FB688022D2001343FB6003E0FB68044A87
:101D40001340FB607B68FA685A61BD4604B080BDF1
:101D5000FFFBFFFF80B584B000AF7860081C111C4A
:101D6000FB1C021C1A70BB1C0A1C1A707B685B6887
:101D7000FB60FB680C229343FB60FB1C1B789B0001
:101D8000FA681343FB607B68FA685A607B685B699A
:101D9000BB60BB68074A1340BB60BB1C1B781B02BF
:101DA000BA681343BB607B68BA685A61BD4604B029
:101DB00080BDC046FFFCFFFF80B584B000AF7860F7
:101DC0000A1CFB1C1A707B685B68FB60FB68074A97
:101DD0001340FB60FB1C1B781B03FA681343FB607A
:101DE0007B68FA685A60BD4604B080BDFFCFFFFF34
:101DF00080B584B000AF78600A1CFB1C1A707B6849
:101E00005B69FB60FB6880229343FB60FB1C1B78D3
:101E1000DB01FA681343FB607B68FA685A61BD46D0
:101E200004B080BD90B585B000AF78600C1C101C6C
:101E3000191CFB1C221C1A70BB1C021C1A707B1C78
:101E40000A1C1A707B685B68BB60BB681D4A134044
:101E5000BB60FB1C1B789B04BA681343BB607B68A8
:101E6000BA685A607B685B69FB60BB1C1B78012BFE
:101E700005D1FB68802252041343FB6003E0FB683A
:101E8000114A1340FB602023FB181B78002B05D060
:101E9000FB68802212041343FB6003E0FB680B4ADB
:101EA0001340FB60FB680A4A1340FB607B1C1B78F5
:101EB000DB06FA681343FB607B68FA685A61BD462B
:101EC00005B090BDFFFFF3FFFFFFFFFEFFFF7FFFA9
:101ED000FFFFFFE780B584B000AF78600A1CFB1CF1
:101EE0001A707B685B68FB60FB68074A1340FB6005
:101EF000FB1C1B789B03FA681343FB607B68FA6842
:101F00005A60BD4604B080BDFF3FFFFF80B584B07E
:101F100000AF78600A1CFB1C1A707B685B68FB6072
:101F2000FB68074A1340FB60FB1C1B781B02FA6826
:101F30001343FB607B68FA685A60BD4604B080BDFD
:101F4000FFFCFFFF80B584B000AF78600A1CFB1C6B
:101F50001A707B685B68FB60FB68074A1340FB6094
:101F6000FB1C1B789B02FA681343FB607B68FA68D2
:101F70005A60BD4604B080BDFFF3FFFF80B584B05A
:101F800000AF78607B685B68FB60FB68064A1340C3
:101F9000FB60FB68802252021343FB607B68FA6897
:101FA0005A60BD4604B080BDFFFFFEFF80B584B01F
:101FB00000AF7860081C111CFB1C021C1A70BB1CB3
:101FC0000A1C1A707B685B68BB60BB68174A1340C9
:101FD000BB60BB68802292021343BB607B68BA6817
:101FE0005A607B685B69FB60BB1C1B78002B05D0CB
:101FF000FB68802292031343FB6003E0FB680C4AFA
:102000001340FB60FB1C1B78012B05D1FB68802271
:10201000D2031343FB6003E0FB68064A1340FB60F6
:102020007B68FA685A61BD4604B080BDFFFFFDFFC2
:10203000FFFFDFFFFFFFBFFF80B586B000AFF86096
:10204000B9607A60FB681B687B617B692A4A134030
:102050007B61BB685B789B047A6913437B617B6916
:10206000264A13407B617B685B781B057A691343C2
:102070007B617B69224A13407B61BB689B78DB05EF
:102080007A6913437B617B691E4A13407B617B68DD
:102090009B781B067A6913437B617B691A4A13405C
:1020A0007B61BB68DB78DB067A6913437B617B6904
:1020B000164A13407B617B68DB785B077A691343C0
:1020C0007B617B69F02293437B61BB681B781B01BA
:1020D0007A6913437B617B690D4A13407B617B689E
:1020E0001B781B027A6913437B61FB687A691A606B
:1020F000BD4606B080BDC046FFFFF3FFFFFFCFFF28
:10210000FFFF7FFFFFFFFFFEFFFFFFE7FFFFFF9FD8
:10211000FFF0FFFF80B588B000AFF8607A600B2356
:10212000FB180A1C1A701F23FB180B22BA1812780E
:10213000013A1A70FB681B68BB611F23FB181B78F0
:10214000DB18DAB21723FB1810321A701723FB18AA
:102150001B7803229A40131CDA43BB691340BB610E
:102160007B685B781A1C1723FB181B789A40131C9A
:10217000BA691343BB611723FB181F22BA181278E0
:1021800016321A701723FB181B7801229A40131C71
:10219000DA43BB691340BB617B689B781A1C172329
:1021A000FB181B789A40131CBA691343BB611F23A9
:1021B000FB181B78DB18DAB21723FB1819321A70D8
:1021C0001723FB181B7803229A40131CDA43BB69C0
:1021D0001340BB617B68DB781A1C1723FB181B7844
:1021E0009A40131CBA691343BB611723FB181F22C3
:1021F000BA18127892001A701723FB181B780F2256
:102200009A40131CDA43BB691340BB617B681B789F
:102210001A1C1723FB181B789A40131CBA69134326
:10222000BB61FB68BA691A60BD4608B080BDC04694
:1022300080B582B000AF78600A1CBB1C1A80BB1C42
:102240001A887B685A63BD4602B080BD80B582B0F3
:1022500000AF7860081C111CFB1C021C1A703B1C90
:102260000A1C1A80FB1C1B78002B04D13B1C1A880B
:102270007B68DA6303E03B1C1A887B685A64BD46BE
:1022800002B080BD80B586B000AF7860081C111C1C
:10229000FB1C021C1A70BB1C0A1C1A707B68A8224B
:1022A0009B58FB60FB1C1B78092B1FD89A001C4B0A
:1022B000D3181B689F4603237B6100233B611BE00F
:1022C0000C237B6102233B6116E030237B610423F6
:1022D0003B6111E0C0239B007B6108233B610BE065
:1022E000C0231B017B610A233B6105E0C0239B01E6
:1022F0007B610C233B61C0467B69DA43FB6813407A
:10230000FB60BB1C1A783B699A40131CFA681343A4
:10231000FB607B68A821FA685A50BD4606B080BDB4
:10232000E0B1001080B582B000AF786039603B68E2
:102330005A687B681A653B689A687B685A653B688F
:102340001A687B68DA64BD4602B080BD80B582B091
:1023500000AF7860081C111CFB1C021C1A70BB1C0F
:102360000A1C1A707B685B6FFA1C12785200111CF1
:1023700003228A40D2431A407B685A677B685A6FAF
:10238000BB1C1B78F91C097849008B401A437B68F9
:102390005A67BD4602B080BD80B582B000AF78609C
:1023A0003960074B04225A63054B7A681A62044B62
:1023B0003A685A62024B9B6A181CBD4602B080BD47
:1023C0000000034080B582B000AF78603960074BF1
:1023D00000225A63054B7A681A62044B3A685A62C3
:1023E000024B9B6A181CBD4602B080BD0000034032
:1023F000F0B587B000AFF860B960124A04215163AC
:10240000104AF96811620F4AB96851620D4AD26ADE
:102410003A6000227A603A6812007A6100223A61DA
:10242000084A926A131C0022141C3A691A43151CAC
:102430007A692243161C2B1C341C181C211CBD4617
:1024400007B0F0BD00000340F0B587B000AF786082
:102450003960124A00215163104A796811620F4AAB
:10246000396851620D4AD26A151C0022161C2A00D6
:102470007A6100223A61094A926A131C0022141CF4
:102480003A691A43BA607A692243131CFB60BB683D
:10249000FC68181C211CBD4607B0F0BD00000340BD
:1024A00080B582B000AF78607B689B6BDBB27F2227
:1024B0009343DBB2181CBD4602B080BD80B582B02C
:1024C00000AF786039607B683A68DA64BD4602B074
:1024D00080BDC04680B584B000AF786039601023FD
:1024E000FB607B68181C00F09DF83B68DB79002BD3
:1024F00002D03B68DB79FB603B681A687968FB684F
:10250000081C111C1A1C00F0B5F83B689B79013BB4
:102510005A00FB685B0801331B021343194A1A4334
:102520007B68DA633B681B79013B1B068122520002
:102530001A437B685A633B685B79002B09D07B6840
:102540005A6B3B685B79013B1B041A437B685A63F7
:1025500008E07B685A6B3B681B79013B1B041A43FC
:102560007B685A637B68A022D2009A637B68012251
:102570005242DA643B681B891A1C7B681A64BD46A8
:1025800004B080BD0100030080B582B000AF786068
:102590000A1CBB1C1A807A6884235B00D258E02393
:1025A000DB04134014D1C0467B68181CFFF778FF8A
:1025B000031E802BF8D07A6880239B01101C191C05
:1025C000FFF77CFFBB1C1A887B6880215A5005E00E
:1025D000BB1C19887A68C0235B00D150BD4602B08D
:1025E00080BDC04680B584B000AF78607A6886232D
:1025F0005B00D258E023DB04134005D17B685A6DA1
:102600000E23FB181A8006E07A688E235B00D258EE
:102610000E23FB181A800E23FB181B88181CBD46BE
:1026200004B080BD80B582B000AF78607A68902336
:10263000DB059A4203D07B680C4A934203D10C4BD2
:10264000181C00F083F97B680322DA60C0467B68BF
:10265000DB6801221340FAD07B681B6C0F22934386
:102660001A1C7B681A64BD4602B080BD0002004897
:102670000800004880B58EB000AFF860B9607A609D
:10268000BB68632B5CD97B68002B59D0FEF714FF25
:10269000031C181C6421FFF77FFE031C3B62BB6810
:1026A000181C6421FFF778FE031CBB600123FB624A
:1026B0000123BB62284B7B62274B3B6324E03B6AD0
:1026C0003A6B5A43111CBB687A685343081C191CA7
:1026D000FFF762FE031CFB61FB699B0ABB61FB69A0
:1026E0009B059B0D7B61BB691B4A934209D87A69A4
:1026F0007B6A9A4205D27B697B62BB69BB623B6B9A
:10270000FB623B6B013B3B633B6B002BD7D1FB6A0E
:10271000802212021A43FB681A61FB685B690F4A48
:102720001A407B68013B9B021A43BB6A013B1B04B6
:102730001A43FB685A613723FB1800221A7003E022
:102740003723FB1801221A703723FB181B78181C3B
:10275000BD460EB080BDC046FF030000EF8000FC08
:1027600080B584B000AFF860B9603B60FB1D1A70A3
:10277000FA6884235B00D3580E4A1340191CFA6888
:1027800084235B00D150FA6884235B00D3580A4A43
:102790001A403B681902BB681943FB1D1B781B06D6
:1027A0000B431A43111CFA6884235B00D150BD46C9
:1027B00004B080BDFFFFFFF8C0C0FFF880B584B053
:1027C00000AFF860B9603B60FB1D1A70FA688623A1
:1027D0005B00D358104A1340191CFA6886235B002B
:1027E000D150FA6886235B00D3580C4A1A403B68E4
:1027F0001902BB681943FB1D1B781B060B431343CF
:10280000802252051A43111CFA6886235B00D150BE
:10281000BD4604B080BDC046FFFFFFF8C0C0FFEF5B
:1028200080B584B000AFF8607A600B23FB180A1CF7
:102830001A70FA6886235B00D3580E4A1340191C9D
:10284000FA6886235B00D150FA6886235B00D35870
:10285000094A1A407B681B021A430B23FB181B789A
:102860001B061A43111CFA6886235B00D150BD4633
:1028700004B080BDFFFFFFF8FFC0FFFF80B584B04C
:1028800000AFF8607A600B23FB180A1C1A70FB6813
:102890009B690B22BA181278072191400A1CD24377
:1028A0001A400B23FB181B78796899400B1C1A43BC
:1028B000FB689A61BD4604B080BDC04680B584B057
:1028C00000AFF8607A600B23FB180A1C1A70FA68D4
:1028D00084235B00D3580B22BA1812780721914049
:1028E0000A1CD2431A400B23FB181B7879689940C5
:1028F0000B1C1A43111CFA6884235B00D150BD469F
:1029000004B080BD80B584B000AFF8607A600B235E
:10291000FB180A1C1A70FA6886235B00D3580B2236
:10292000BA181278072191400A1CD2431A400B238F
:10293000FB181B78796899400B1C1A43111CFA6824
:1029400086235B00D150BD4604B080BD80B582B007
:1029500000AF78607B68044A934202D10820FEF7FA
:10296000CFFCBD4602B080BD0800004880B584B0F1
:1029700000AF786039603B1C1B785B075B0FDBB2F4
:102980001A1CBB1C1B889B059B0D9BB21B0413438D
:10299000FB607A68F8235B00F968D150FB1C1B7858
:1029A000DB06DB0FDBB21A07FB1C1B781B079B0F38
:1029B000DBB29B061A43FB1C1B789B06DB0FDBB2CA
:1029C0005B071343FB60FB1C1B785B06DB0FDBB272
:1029D0009B07FA681343FB607A68F8235B00D258C0
:1029E000FB681343802212061A43111C7A68F823ED
:1029F0005B00D150BD4604B080BDC04680B582B0FA
:102A000000AF78607B6884229B58802252041A436E
:102A10007B6884215A50BD4602B080BD80B582B02B
:102A200000AF78607B6884229B58044A1A407B6818
:102A300084215A50BD4602B080BDC046FFFFFFFE54
:102A400080B500AF034BFF221A600120FEF758FC4F
:102A5000BD4680BD0005014080B582B000AF786002
:102A60003960FFF7EDFF3B685A697B681A603B6885
:102A70005B68802212021A437B6880215A503B68AF
:102A80009A687B68A0215A503B68DA687B68A42169
:102A90005A503B6819697A68A0239B00D1503B6863
:102AA0001A687B68B8215A50BD4602B080BDC04646
:102AB00080B584B000AF78607B6880229B5880220C
:102AC00012061A437B6880215A500F23FB180022FC
:102AD0001A701CE00F23FB181A78114B9200D35880
:102AE000BB60BB6880229A58C0239B02134007D06A
:102AF000C046BB6880229A5880235B051340F8D1FA
:102B00000F23FB181A780F23FB1801321A700F23BA
:102B1000FB181B78012BDDD9BD4604B080BDC04633
:102B200008B2001080B582B000AF786039607A6872
:102B30003B685B68101C191C0022002300F030F871
:102B40007A683B685B68101C191C0122002300F0A6
:102B500027F87A683B689B68101C191C0022012327
:102B600000F01EF87A683B689B68101C191C012253
:102B7000012300F015F83B681A697B6880215A50E0
:102B80003B68DA687B68B8215A507A683B681B68F2
:102B9000101C191CFFF7EAFEBD4602B080BDC046FE
:102BA00080B58CB000AFF860B9603B60FB1D1A7057
:102BB000FB1D1B78002B19D10823FB62E023DB00EF
:102BC0007B620023BB621F233B620823FB181B7838
:102BD000DB06DB0EDBB2FB610923FB181B785B070E
:102BE0005B0FDAB21B23FB181A7019E01823FB6283
:102BF000E023DB047B621023BB62F8235B033B62B0
:102C00000A23FB181B78DB06DB0EDBB2FB610B2310
:102C1000FB181B785B075B0FDAB21B23FB181A70DB
:102C2000FB683A6828329200D3587B617B6ADA43AA
:102C30007B6913407B611B23FB181A78FB6A9A405F
:102C4000131C7A6913437B613B6ADA437B69134047
:102C50007B61BB6AFA699A40131C7A6913437B61F2
:102C6000FB683A68283292007969D150BD460CB0B1
:102C700080BDC04680B584B000AF78600A1CFB1CE4
:102C80001A707B6880229B58FB60FB680322934389
:102C9000FB60FB1C1B78FA681343FB607B68802198
:102CA000FA685A50BD4604B080BDC04680B586B0B3
:102CB00000AFF860B9607A607A68BB689A4202D95E
:102CC000BB680133BB60FB68C0229B587B617B699A
:102CD000032293437B617A69BB6813437B61FB6882
:102CE000C0217A695A50BD4606B080BD80B584B017
:102CF00000AF78607B68C0229B58FB60FB680322B2
:102D00009343FB607B68C021FA685A50BD4604B00B
:102D100080BDC04680B584B000AF786039600023C4
:102D2000BB600023FB600BE0124BFA689200D258A4
:102D30007B689A4201D1FB68BB60FB680133FB6092
:102D4000FB68012BF0D93A68BB689A4202D23B6813
:102D500001333B607B68C0229A583B680333191CDF
:102D600001238B401A437B68C0215A50BD4604B0F2
:102D700080BDC04608B2001080B582B000AF786058
:102D80000A1CFB1C1A70FB1C1B78002B08D17B68EB
:102D900080229B5801221A437B6880215A500BE005
:102DA000FB1C1B78012B07D17B6884229B580122D6
:102DB0001A437B6884215A50BD4602B080BDC0468C
:102DC00080B584B000AF786039607B68181CFFF76D
:102DD00025FE7B6884229B58FB60FB68032293439B
:102DE000FB603B681B781B079B0FDBB21A1CFB6860
:102DF0001343FB603B681B7803221340DBB2002BBC
:102E000003D0FB6808221343FB607B688421FA68C7
:102E10005A503B685B68154A1A43111C7A68802334
:102E20005B00D1503B689B6801221A43111C7A68F1
:102E300082235B00D1503B681B7803221340DBB236
:102E4000022B0BD17A6882235B00D3588022520276
:102E50001A43111C7A6882235B00D1507B68181CCE
:102E6000FFF7CCFDBD4604B080BDC0460080808029
:102E700080B584B000AF78600A1CFB1C1A707A68B9
:102E8000E0235B00D358FB60FB680F229343FB6099
:102E9000FB1C1B78FA681343FB607A68E0235B0035
:102EA000F968D150BD4604B080BDC04680B588B039
:102EB00000AFF860B9607A607B681B7BBB61FB6820
:102EC00088229B587B61BB6801229A40131CDA431D
:102ED0007B6913407B61BB68BA699A40131C7A69AD
:102EE00013437B61FB6888217A695A507B685B7B5E
:102EF0005BB2002B2ADB0023FB61BB68012B0AD1EC
:102F00000823FB61FB68B0229B581E4A1A40FB68ED
:102F1000B0215A500DE0BB68002B0AD10023FB61A1
:102F2000FB68B0229B581F2293431A1CFB68B021F8
:102F30005A50FB68B0229B587A68527B51B2FA69AA
:102F400091400A1C1A43FB68B0215A50FB68C82202
:102F50009A587B685B681A43FB68C8215A50FB6823
:102F6000D0229A587B689B681A43FB68D0215A503C
:102F70007B681968FB68BA6880329200D150BD4600
:102F800008B080BDFFE0FFFF80B586B000AFF860FD
:102F9000B960FB1D1A70BB68072B1BD8FA68D823D1
:102FA0005B00D3587B61BB689B001A1C0F239340C6
:102FB000DA437B6913407B61FB1D1B78BA68920082
:102FC00093407A6913437B61FA68D8235B0079697F
:102FD000D15020E0FA68DA235B00D3587B61BB68EC
:102FE0000E4A944663449B001A1C0F239340DA4315
:102FF0007B6913407B61FB1D1B78BA6807498C46CF
:103000006244920093407A6913437B61FA68DA2341
:103010005B007969D150BD4606B080BDF8FFFF3F27
:1030200080B584B000AF7860144B1B68002B02D1D0
:10303000124B134A1A60114B1B68FB607B68033309
:10304000032293437B600D4B1A687B68D2180D4BAB
:103050009A4207D2094B1A687B68D218074B1A604C
:10306000FB6806E004F0AEFF031C0C221A6001238B
:103070005B42181CBD4604B080BDC046141300203E
:10308000C0180020FC3F002080B500AFBD4680BDC9
:1030900080B582B000AF786039607B681A6C3B689D
:1030A0001A437B681A64BD4602B080BD80B582B009
:1030B00000AF786039607B681B6C3A68D2431A4075
:1030C0007B681A64BD4602B080BDC04680B582B040
:1030D00000AF78607B689B6BDBB27F229343DBB2EF
:1030E000181CBD4602B080BD80B582B000AF7860CC
:1030F00039603B68802252029A407B689A66BD46DE
:1031000002B080BD80B582B000AF786039607A6867
:1031100084235B00D2583B681A43111C7A688423CD
:103120005B00D150BD4602B080BDC04680B582B0C4
:1031300000AF786039607A6884235B00D3583A68BE
:10314000D2431A40111C7A6884235B00D150BD46DB
:1031500002B080BD80B582B000AF78607A688C2301
:103160005B0080210902D150BD4602B080BDC0463F
:1031700080B582B000AF78607A688A235B00D2584D
:1031800080235B0113405A1E9341DBB2181CBD46DD
:1031900002B080BD80B582B000AF78607A688A23C3
:1031A0005B00D25880231B0113405A1E9341DBB2AF
:1031B000181CBD4602B080BD80B582B000AF7860FB
:1031C00039607A6886235B00D3583A68D2431A4044
:1031D000111C7A6886235B00D150BD4602B080BDC9
:1031E00080B582B000AF78607A688A235B00D358DC
:1031F000082213405A1E9341DBB2181CBD4602B090
:1032000080BDC04690B585B000AF78600F23FB1835
:1032100000221A707B685B685B680F22BC189847B5
:10322000031C23700F23FB181B78181CBD4605B028
:1032300090BDC04690B587B000AFF860B9607A60C5
:103240001723FB1804221A70FB685B6829229B5C19
:10325000002B02D0022B0DD019E01723FC18F968BF
:10326000BA687B68081C111C1A1C00F017F8031CB4
:1032700023700CE01723FC18F968BA687B68081CF7
:10328000111C1A1C00F072F8031C2370C04617238F
:10329000FB181B78181CBD4607B090BD80B586B0E2
:1032A00000AFF860B9607A601723FB1804221A7027
:1032B000FB689B683B61FB685B6829229B5C002B79
:1032C0004CD11723FB1802221A703B691B7EDBB21C
:1032D00001225340DBB2002B40D0BB68002B39D019
:1032E0007B68002B36D03B69BA681A603B697A6804
:1032F0009A603B690022DA603B6901221A76FB681A
:103300005B682B229B5C002B0DD0FB681B68181C94
:10331000FFF720FFFB681A688023DB05101C191CCF
:10332000FFF7F0FE07E0FB681A6880239B01101C82
:10333000191CFFF7ADFE1723FB1800221A70FB685B
:103340001968FB685B682D229B5C081C191CFFF741
:10335000CBFE03E01723FB1803221A701723FB1878
:103360001B78181CBD4606B080BDC04680B586B02F
:1033700000AFF860B9607A601723FB1803221A7057
:10338000BB68002B5CD07B68002B59D01723FB183F
:1033900002221A70FB689B681B7EDBB2012253403D
:1033A000DBB2002B4CD0FB689B6801221A76FB68CD
:1033B0005B682B229B5C002B04D0FB681B68181CED
:1033C000FFF7C8FE00233B611BE0FB685B682B2214
:1033D0009B5C002B07D0C046FB681B68181CFFF7DE
:1033E000C7FE031EF8D1FB681968BA683B69D31899
:1033F0001B789BB2081C191CFFF7C6F83B69013308
:103400003B613A697B689A42DFD3FB685B682B2299
:103410009B5C002B0CD0C046FB681B68181CFFF798
:10342000B9FE031C1A1C01235340DBB2002BF3D15D
:103430001723FB1800221A70FB689B6800221A767B
:103440001723FB181B78181CBD4606B080BDC0466C
:1034500080B584B000AF78607B689B68FB60FB68D8
:10346000DA68FB689B689A4241D27B685B682B22D2
:103470009B5C002B28D01AE0FB68DA68FB689B682D
:103480009A4212D27B681968FB681A68FB68DB688D
:10349000D3181B789BB2081C191CFFF775F8FB6842
:1034A000DB685A1CFB68DA6001E0C04655E07B68C7
:1034B0001B68181CFFF75CFE031C1A1C01235340F9
:1034C000DBB2002BD8D148E07B681968FB681A682A
:1034D000FB68DB68D3181B789BB2081C191CFFF72C
:1034E00053F8FB68DB685A1CFB68DA6035E07B68E0
:1034F0001B68181CFFF74EFE031E2ED07B685B680E
:103500002B229B5C002B08D07B681A688023DB058C
:10351000101C191CFFF70AFE07E07B681A6880235D
:103520009B01101C191CFFF7C1FDC0467B681B687E
:10353000181CFFF7CBFD031E802BF7D0FB68002281
:103540001A76FB6800221A607B685B689B68002B18
:1035500003D07B685B689B689847BD4604B080BD1C
:1035600090B585B000AF78607B689B68FB607B6836
:103570005B682C229B5C002B51D033E0FB685A69BE
:10358000FB681B699A4211D2FB685A68FB685B6949
:10359000D4187B681B68181CFFF724F8031CDBB2E7
:1035A0002370FB685B695A1CFB685A61FB685A69A7
:1035B000FB681B699A4215D1FB6800225A767B682A
:1035C0001A68C023DB05101C191CFFF7F5FD7B688A
:1035D0005B68DB68002B04D07B685B68DB6898471E
:1035E0000CE00BE07B681B68181CFFF7F9FD031C5F
:1035F0001A1C01235340DBB2002BBFD1FB685A6970
:10360000FB681B699A423CD2FB681A69FB685B69DC
:10361000D31A7A68101C191C00F036F831E0FB68E8
:103620005A69FB681B699A4211D2FB685A68FB68A9
:103630005B69D4187B681B68181CFEF7D3FF031C5A
:10364000DBB22370FB685B695A1CFB685A61FB683C
:103650005A69FB681B699A4213D1FB6800225A76AB
:103660007B681A68C0231B02101C191CFFF71EFD83
:103670007B685B68DB68002B03D07B685B68DB687A
:103680009847BD4605B090BD80B584B000AF786066
:1036900039600023FB607B685B682C229B5C1A1CF2
:1036A00001239340BB603A68BB689A4203D23B68EF
:1036B000013BFB6002E0BB68013BFB607B68196873
:1036C0007B685B682C229A5CFB68081C111C1A1C26
:1036D000FFF7A6F8BD4604B080BDC04680B582B0F5
:1036E00000AF021CFB1D1A70FB1D1B787F2B09D835
:1036F000064BFA1D1278111C1F220A40012191402D
:103700000A1C1A60BD4602B080BDC04600E100E060
:10371000B0B582B000AF021C3960FB1D1A70FB1DF2
:103720001B787F2B27D82D4CFB1D1B785BB29B0889
:103730002A49FA1D127852B29208C03292005258A9
:10374000F91D0978081C03210140C900081CFF214C
:103750008140C94311403A689201FF200240F81DA0
:103760000078051C03202840C00082400A43C03373
:103770009B001A512EE01A4CFB1D1B781A1C0F23BC
:103780001340083B9908164AFB1D1B78181C0F2391
:103790000340083B9B0806339B00D3185B68FA1D67
:1037A0001278101C03220240D200101CFF2282401B
:1037B000D2431A403B689B01FF200340F81D00786C
:1037C000051C03202840C00083401A438B1D9B002A
:1037D000E3185A60BD4602B0B0BDC04600E100E04B
:1037E00000ED00E080B582B000AF7860081C111CCD
:1037F000FB1C021C1A70BB1C0A1C1A70FB1C1878DC
:10380000FB1C1B787A6806339B00D3185B68072281
:1038100093431A1CBB1C1B781A437968831D9B00B9
:10382000CB185A60BD4602B080BDC04680B582B09C
:1038300000AF78607B681B6C0F22934302221A430F
:103840007B681A64BD4602B080BDC04680B582B0B8
:1038500000AFFB1D00221A70214A224B101C0B21C5
:103860001A1CFDF757FC204A204B101C191CFEF7B0
:1038700031FE1D4B181C00210422FFF7B3FF1A4B29
:10388000181C03210022FFF7ADFF174B181C052160
:103890000022FFF7A7FF144B181C1021042201235C
:1038A000FEF75EFF104B181C002104220F23FEF7C9
:1038B00085FF0D4B181CFFF7B9FF0D4A0D4B101C6F
:1038C00003211A1CFDF726FC074B181C10210122AE
:1038D000FEF7D4FFFB1D1B78181CBD4602B080BD4F
:1038E0000002044060B200100002004810B2001054
:1038F000000104401CB2001080B582B000AFFB1D77
:1039000000221A70374A384B101C04211A1CFDF78C
:1039100001FC9023DA05354B101C191CFEF7DAFD6B
:103920009023DB05181C00210622FFF75BFF902384
:10393000DB05181C03210522FFF754FF9023DB054C
:10394000181C05210422FFF74DFF9023DB05181CEE
:10395000302104220123FEF703FF9023DB05181C0E
:10396000202104220023FEF729FF9023DB05181CE9
:10397000FFF75CFF1B4A1E4B101C05211A1CFDF7AC
:10398000C9FB9023DB05181C10210122FEF776FFEE
:103990009023DB05181C10210122FEF78FFF9023D6
:1039A000DB05181C10210022FEF7ACFF9023DB057D
:1039B000181C13210022FEF7A5FF0A200321FFF7A0
:1039C000A7FE0A20FFF78AFE09200321FFF7A0FEC9
:1039D0000920FFF783FEFB1D1B78181CBD4602B0B3
:1039E00080BDC04600010440B8B2001068B20010AB
:1039F00074B2001080B500AF024B181CFFF728FD11
:103A0000BD4680BD5411002080B500AF024B181C8C
:103A1000FFF7A6FDBD4680BD5411002080B582B0E1
:103A200000AF78600A1CFB1C1A707B68DA68FB1C0C
:103A30001B78012199400B1C1A437B68DA60BD4654
:103A400002B080BD80B582B000AF786039607B681D
:103A50005A693B685B041A437B685A61BD4602B0F1
:103A600080BDC04680B582B000AF78607B6801221F
:103A7000DA60BD4602B080BD80B582B000AF78602C
:103A80007B6801221A61BD4602B080BD80B582B05C
:103A900000AF78607B6802221A61BD4602B080BD2B
:103AA00080B582B000AF786039607B683A681A618F
:103AB000BD4602B080BDC04680B582B000AF786020
:103AC0000A1CFB1C1A707B68A4229A58FB1C1B78EA
:103AD000012199400B1C1A437B68A4215A50BD4612
:103AE00002B080BD80B582B000AF78600A1CFB1CBC
:103AF0001A707B68B4229B580C2293431A1CFB1C3F
:103B00001B785B00191C06230B401A437B68B42109
:103B10005A50BD4602B080BD90B587B000AF786006
:103B20001723FB1801221A701623FB1801221A70A2
:103B30007B681B7F002B00D0AFE07B681B688C226A
:103B40009B581622BC18181C00F026FF031C23707B
:103B50001623FB181B78002B00D09AE07B689A682C
:103B60007B681B689B6C101C191CFEF76BF87B684C
:103B70009A687B681B685B88101C191CFEF758FB51
:103B80007B689A687B681B689B88101C00211A1C44
:103B9000FEF75CFB7B689A687B681B68DB88101CFF
:103BA00001211A1CFEF752FB7B681B689B6CDB78BB
:103BB00002221340DBB2002B08D17B681B689B6C90
:103BC000DB7804221340DBB2002B08D07B685A68F4
:103BD0007B681B68DB6B101C191CFEF76DF87B689B
:103BE00099687B681B6844229B5C081C191CFFF7C2
:103BF00079FF7B685A687B681B69101C191CFFF7EA
:103C00004FFF7B685A687B685B69101C191CFFF7C3
:103C100047FF7B689A687B681B681B6C101C191C2B
:103C2000FEF780FB7B68181C00F062F97B68181CAB
:103C300000F03EF87B68181C00F0FEF87B681B68FB
:103C40008C229B581B683B617B681B689B6C1B7BB1
:103C50001B071B0FDBB2FB60FB683A69DA40131CE1
:103C60003B617B683A691A627B6801221A771723E5
:103C7000FB1800221A707B681B681B78002B10D081
:103C80001723FC187B68181C00F01EFA031C237015
:103C900007E07B6800221A7703E01723FB18022253
:103CA0001A701723FB181B78181CBD4607B090BD6F
:103CB00080B582B000AF78607B689A687B681B68CB
:103CC0005B7C101C00211A1CFEF7DCFA7B689A68EA
:103CD0007B681B689B7C101C02211A1CFEF7D2FA21
:103CE0007B689A687B681B68DB7C101C03211A1CAC
:103CF000FEF7C8FA7B689A687B681B681B7D101CFE
:103D000004211A1CFEF7BEFA7B689A687B681B6860
:103D10005B7D101C05211A1CFEF7B4FA7B689A68BB
:103D20007B681B689B7D101C01211A1CFEF7AAFAF8
:103D30007B689A687B681B68DB7D101C08211A1C55
:103D4000FEF7A0FA7B689A687B681B681B7E101CD4
:103D500009211A1CFEF796FA7B689A687B681B6833
:103D60005B7E101C0A211A1CFEF78CFA7B681B680C
:103D70001B7A002B05D07B689B68181C0021FFF77D
:103D80009BFE7B681B685B7A002B05D07B689B6879
:103D9000181C0221FFF790FE7B681B689B7A002BA2
:103DA00005D07B689B68181C0321FFF785FE7B68A4
:103DB0001B68DB7A002B05D07B689B68181C0421EC
:103DC000FFF77AFE7B681B681B7B002B05D07B68A6
:103DD0009B68181C0521FFF76FFE7B681B685B7BE7
:103DE000002B05D07B689B68181C0121FFF764FE3F
:103DF0007B681B689B7B002B05D07B689B68181C2D
:103E00000821FFF759FE7B681B68DB7B002B05D080
:103E10007B689B68181C0921FFF74EFE7B681B68B6
:103E20001B7C002B05D07B689B68181C0A21FFF7C0
:103E300043FEBD4602B080BD80B582B000AF786061
:103E40007B681B684C229B5C002B0ED07B681B6838
:103E5000196D7B681B6854229A5C7B681B689B6D9C
:103E6000081C111C1A1CFDF755F97B681B685C22A5
:103E70009B5C002B0ED07B681B68196E7B681B68EF
:103E800064229A5C7B681B689B6E081C111C1A1CC0
:103E9000FDF740F97B681B686C229B5C002B0ED001
:103EA0007B681B68196F7B681B6874229A5C7B684F
:103EB0001B689B6F081C111C1A1CFDF72BF97B68F3
:103EC0001B687C229B5C002B0ED07B681B688022C9
:103ED00098587B681B688422995C7B681B688822E1
:103EE0009B581A1CFDF716F9BD4602B080BDC046AE
:103EF00090B585B002AF78607B689A687B681B6874
:103F0000DB69101C01211A1CFEF704F97B689A6812
:103F10007B681B681B6A101C02211A1CFEF7FAF84A
:103F20007B689A687B681B685B6A101C03211A1CFB
:103F3000FEF7F0F87B681B6828229B5C002B0CD0F6
:103F40007B6898687B681B682822995C7B681B6883
:103F500029229B5C1A1CFDF7C9FE7B681B682A227C
:103F60009B5C002B0CD07B6898687B681B682A22BE
:103F7000995C7B681B682B229B5C1A1CFDF7EAFE90
:103F80007B681B682C229B5C002B09D07B6899689E
:103F90007B681B682C229B5C081C191CFDF7D2FF58
:103FA0007B681B682D229B5C002B09D07B6899687D
:103FB0007B681B682D229B5C081C191CFDF7A6FF63
:103FC0007B681B682E229B5C002B09D07B6899685C
:103FD0007B681B682E229B5C081C191CFDF77AFF6E
:103FE0007B681B682F229B5C002B13D07B68996831
:103FF0007B681B682F229B5C081C191CFDF7DCFEEC
:104000007B6899687B681B6830229B5C081C191CC4
:10401000FDF7EEFE7B681B6831229B5C002B12D003
:104020007B6898687B681B683122995C7B681B6899
:1040300032229C5C7B681B6833229B5C0093221CB1
:104040000323FDF7EFFE7B681B6837229B5C032B85
:1040500018D17B6898687B681B683922995C7B68FB
:104060001B6838229B5C1A1CFDF7A0FF7B681B684D
:1040700036229B5C002B05D07B689B68181C0F21A7
:10408000FFF7E0FC7B681B6834229B5C002B05D1AA
:104090007B681B6835229B5C002B11D07B6899687C
:1040A0007B681B681A6A7B681B685B6A081C111CAA
:1040B0001A1CFDF7C1FF7B689B68181CFDF75EFFAB
:1040C000BD4603B090BDC04680B584B000AF7860F7
:1040D0000F23FB1801221A707B681B7F012B03D072
:1040E0007B681B7F032B19D17B685A687B685B7BDD
:1040F000101C191CFFF792FC7B681B6828229B5C34
:10410000002B04D17B689B68181CFFF7ABFC7B6815
:1041100002221A770F23FB1800221A700F23FB18B4
:104120001B78181CBD4604B080BDC04680B584B065
:1041300000AF78600F23FB1801221A707B681B7F89
:10414000002B10D07B689B68181CFFF795FC7B68E0
:104150009B68181CFFF79AFC7B6803221A770F23D1
:10416000FB1800221A700F23FB181B78181CBD4681
:1041700004B080BD80B588B000AF786039601F237F
:10418000FB1801221A7000237B617B681B7F002BC8
:1041900074D03B68002B71D07B681B6A7B617869A7
:1041A0003968FEF7F9F8031CBB617B681B689B6CE0
:1041B0001B7801221340DBB2002B02D0BB695B08E5
:1041C000BB61BB69002B59D0BB69304A934255D8BB
:1041D0007B685B6A3B617B689B6AFB603B692C4A3E
:1041E000D31A3B613B69BA6953433B613B69181C75
:1041F0002749FEF7D1F8031C3B61FB68244AD31A18
:10420000FB60FB68BA695343FB60FB68181C2049DC
:10421000FEF7C2F8031CFB600A23FB183A691A80F8
:104220000823FB18FA681A807B689A68BB699BB2FE
:10423000013B9BB2101C191CFDF7FAFF7B689A68C2
:104240000A23FB181B88101C00211A1CFDF7FEFF17
:104250007B689A680823FB181B88101C01211A1C14
:10426000FDF7F4FF7B685A687B681B69101C191CFA
:10427000FFF716FC1F23FB1800221A701F23FB18E0
:104280001B78181CBD4608B080BDC046FFFF00006B
:104290001027000080B582B000AF78600A1CFB1CBC
:1042A0001A707B68DA68FB1C1B78012199400B1C93
:1042B0001A437B68DA60BD4602B080BD80B582B02B
:1042C00000AF78607B685B69802292021A437B684A
:1042D0005A61BD4602B080BD80B582B000AF786043
:1042E0007B680122DA60BD4602B080BD80B582B035
:1042F00000AF78600A1CBB1C1A80BB1C1A887B6844
:104300005A63BD4602B080BD80B582B000AF786010
:104310000A1CBB1C1A80BB1C1A887B68DA63BD466A
:1043200002B080BD80B582B000AF786039607B6834
:104330003A681A61BD4602B080BDC04680B582B001
:1043400000AF78600A1CFB1C1A707B68A4229A5884
:10435000FB1C1B78012199400B1C1A437B68A4218C
:104360005A50BD4602B080BD90B587B000AF7860AE
:104370001723FB1801221A701623FB1801221A704A
:104380007B681B7F002B00D097E07B681B68DB6C91
:104390001622BC18181C00F02DFB031C23701623DA
:1043A000FB181B78002B00D083E07B689A687B6841
:1043B0001B689B6B101C191CFDF7F0F87B689A6852
:1043C0007B681B685B88101C191CFFF78FFF7B68DC
:1043D0009A687B681B689B88101C191CFFF794FF68
:1043E0007B681B689B6BDB7802221340DBB2002BDF
:1043F00008D07B685A687B681B685B6B101C191CB3
:10440000FDF7B2F87B685A687B681B69101C191CA1
:10441000FFF788FF7B685A687B685B69101C191C72
:10442000FFF780FF7B68181C00F0ECF87B68181C15
:1044300000F04EF87B681B683C229B5C002B0ED082
:104440007B681B68196C7B681B6844229A5C7B68DC
:104450001B689B6C081C111C1A1CFCF75BFE7B681C
:104460001B68DB6C1B683B617B681B689B6B1B7963
:104470001B071B0FDBB2FB60FB683A69DA40131CB9
:104480003B617B683A691A627B6801221A771723BD
:10449000FB1800221A707B681B681B78002B10D059
:1044A0001723FC187B68181C00F08AF9031C237082
:1044B00007E07B6800221A7703E01723FB1802222B
:1044C0001A701723FB181B78181CBD4607B090BD47
:1044D00080B582B000AF78607B681B689B79002B49
:1044E0000FD07B689A687B681B685B7B101C00217F
:1044F0001A1CFDF703FB7B689B68181C0021FFF763
:104500001DFF7B681B68DB79002B0FD07B689A68E6
:104510007B681B689B7B101C02211A1CFDF7EEFABE
:104520007B689B68181C0221FFF708FF7B681B68EB
:104530001B7A002B0FD07B689A687B681B68DB7B3B
:10454000101C03211A1CFDF7D9FA7B689B68181C04
:104550000321FFF7F3FE7B681B685B7A002B0FD00B
:104560007B689A687B681B681B7C101C01211A1CE5
:10457000FDF7C4FA7B689B68181C0121FFF7DEFE7B
:104580007B681B689B7A002B0FD07B689A687B68DE
:104590001B685B7C101C08211A1CFDF7AFFA7B68B6
:1045A0009B68181C0821FFF7C9FE7B681B68DB7A33
:1045B000002B0FD07B689A687B681B689B7C101C63
:1045C00009211A1CFDF79AFA7B689B68181C0921BF
:1045D000FFF7B4FE7B681B681B7B002B0FD07B684A
:1045E0009A687B681B68DB7C101C0A211A1CFDF78B
:1045F00085FA7B689B68181C0A21FFF79FFEBD4661
:1046000002B080BD90B583B000AF78607B689A68D7
:104610007B681B685B69101C01211A1CFDF7E0F91F
:104620007B689A687B681B689B69101C02211A1CB6
:10463000FDF7D6F97B689A687B681B68DB69101CFC
:1046400003211A1CFDF7CCF97B681B6820229B5CB8
:10465000002B0CD07B6898687B681B682022995CD3
:104660007B681B6821229B5C1A1CFCF7CBFF7B68D4
:104670001B6822229B5C002B0CD07B6898687B68AF
:104680001B682222995C7B681B6823229B5C1A1C96
:10469000FCF7ECFF7B681B6824229B5C002B09D095
:1046A0007B6899687B681B6824229B5C081C191C2A
:1046B000FDF7AEF87B681B6825229B5C002B09D0B8
:1046C0007B6899687B681B6825229B5C081C191C09
:1046D000FDF782F87B681B6826229B5C002B09D0C3
:1046E0007B6899687B681B6826229B5C081C191CE8
:1046F000FDF756F87B681B6827229B5C002B09D0CE
:104700007B6899687B681B6827229B5C081C191CC6
:10471000FCF7DEFF7B681B6828229B5C002B10D017
:104720007B6898687B681B682822995C7B681B689B
:1047300029229C5C7B681B682A229B5C221CFCF75C
:10474000E3FF7B681B682E229B5C032B17D17B68E1
:1047500098687B681B683022995C7B681B682F22F5
:104760009B5C1A1CFDF788F87B681B682D229B5CFC
:10477000002B04D07B689B68181CFFF79FFD7B68AB
:104780001B682B229B5C022B17D17B681B682C2299
:104790009B5C032B11D17B6899687B681B689A69C5
:1047A0007B681B68DB69081C111C1A1CFDF7AAF842
:1047B0007B689B68181CFDF747F8BD4603B090BDA9
:1047C00080B584B000AF78600F23FB1801221A7007
:1047D0007B681B7F012B03D07B681B7F032B19D1C8
:1047E0007B685A687B685B7B101C191CFFF752FDC5
:1047F0007B681B6820229B5C002B04D17B689B6834
:10480000181CFFF769FD7B6802221A770F23FB183B
:1048100000221A700F23FB181B78181CBD4604B029
:1048200080BDC04680B582B000AF021CFB1D1A706F
:10483000FB1D1B787F2B09D8064BFA1D1278111C23
:104840001F220A40012191400A1C1A60BD4602B095
:1048500080BDC04600E100E0B0B582B000AF021CF0
:104860003960FB1D1A70FB1D1B787F2B27D82D4C40
:10487000FB1D1B785BB29B082A49FA1D127852B2C5
:104880009208C03292005258F91D0978081C032181
:104890000140C900081CFF218140C94311403A680A
:1048A0009201FF200240F81D0078051C03202840DB
:1048B000C00082400A43C0339B001A512EE01A4CBC
:1048C000FB1D1B781A1C0F231340083B9908164A3E
:1048D000FB1D1B78181C0F230340083B9B08063365
:1048E0009B00D3185B68FA1D1278101C032202404B
:1048F000D200101CFF228240D2431A403B689B0129
:10490000FF200340F81D0078051C03202840C0004C
:1049100083401A438B1D9B00E3185A60BD4602B0CA
:10492000B0BDC04600E100E000ED00E080B582B01F
:1049300000AF78607B681B785BB2181CFFF772FFD2
:10494000BD4602B080BDC04680B582B000AF786081
:104950007B681A787B685B78191C53B2181CFFF7C8
:104960007BFF7B689B78002B03D07B68181CFFF7CC
:10497000DDFF0023181CBD4602B080BD80B582B0AB
:1049800000AF78607B68DB68802252001A437B6846
:10499000DA60BD4602B080BD80B582B000AF7860FD
:1049A0007B685B7B01225340DBB2002B0FD07B681E
:1049B0009A687B681B7B101C191CFDF71FF97B682C
:1049C0009B68181CFFF7DAFF7B6801225A730023EB
:1049D000181CBD4602B080BD80B582B000AF7860C3
:1049E0007B68DB68802252001A437B68DA60BD4630
:1049F00002B080BD80B582B000AF78607B685B7B21
:104A000001225340DBB2002B0FD07B689A687B6891
:104A10001B7B101C191CFCF783FD7B689B68181C12
:104A2000FFF7DAFF7B6801225A730023181CBD468A
:104A300002B080BD80B582B000AF786039607B681D
:104A400080229A583B681033191C01238B401A436B
:104A50007B6880215A50BD4602B080BD80B582B0CF
:104A600000AF78600A1CFB1C1A707B681B6C064A3E
:104A70001A40FB1C1B781A437B681B6C1A437B682B
:104A80001A64BD4602B080BDFFF3FFFF80B582B05F
:104A900000AF78600A1CFB1C1A707B681B6C0A4A0A
:104AA0001340802212021A437B681A647B681A6CD6
:104AB000FB1C1B781343802212021A437B681A6482
:104AC000BD4602B080BDC046F07FFFFF80B584B018
:104AD00000AF78607B681B7E022B5ED17B68DA6852
:104AE0007B689B68101C191CFDF7B6FF0023FB6058
:104AF00038E07B68FA689200D35819687B68FA68D6
:104B00009200D3585B68081C191CFEF70BF87B68F1
:104B1000FA689200D3581B68181C0321FEF7AAF804
:104B20007B68FA689200D3581B7A01225340DBB2AB
:104B3000002B06D07B68DA68FB68101C191CFFF795
:104B400079FF7B681A69FB68DBB2101C191CFEF741
:104B500013F97B68FA689200D35800225A72FB68F6
:104B60000133FB60FB68012BC3D97B681B69181CF0
:104B70000021FFF78BFF7B681B69181C0021FFF7E2
:104B80006DFF7B685B7E002B04D07B68DB68181CA4
:104B9000FDF78EFF7B6800221A767B681B7E181C4F
:104BA000BD4604B080BDC04680B582B000AF78601D
:104BB0007B6819687B681A7B7B680433081C111CAE
:104BC0001A1CFCF7A7FA7B6819687B681A7B7B685C
:104BD0005B7B081C111C1A1CFDF7B8FB0023181C7A
:104BE000BD4602B080BDC04680B500AFBD4680BDA9
:104BF00080B584B000AF78600F23FB1800221A70D4
:104C00000E23FB1800221A700D23FB1800221A70C5
:104C10000C23FB1800221A700B23FB1800221A70B9
:104C20007B681B7801225340DBB2002B1BD00E2384
:104C3000FA180D23FB1812781B781343DAB20C23F1
:104C4000FB181B781343D9B20F23FB180B22BA1899
:104C500012780A431A700F23FB181B78002B02D11D
:104C60007B6801221A700F23FB181B78181CBD46A5
:104C700004B080BD90B585B000AF3B1D044A13CA97
:104C800013C33B1D181CFCF717FBBD4605B090BDB8
:104C900048B5001080B582B000AF021CFB1D1A7031
:104CA000FB1D1B787F2B09D8064BFA1D1278111CAF
:104CB0001F220A40012191400A1C1A60BD4602B021
:104CC00080BDC04600E100E0B0B582B000AF021C7C
:104CD0003960FB1D1A70FB1D1B787F2B27D82D4CCC
:104CE000FB1D1B785BB29B082A49FA1D127852B251
:104CF0009208C03292005258F91D0978081C03210D
:104D00000140C900081CFF218140C94311403A6895
:104D10009201FF200240F81D0078051C0320284066
:104D2000C00082400A43C0339B001A512EE01A4C47
:104D3000FB1D1B781A1C0F231340083B9908164AC9
:104D4000FB1D1B78181C0F230340083B9B080633F0
:104D50009B00D3185B68FA1D1278101C03220240D6
:104D6000D200101CFF228240D2431A403B689B01B4
:104D7000FF200340F81D0078051C03202840C000D8
:104D800083401A438B1D9B00E3185A60BD4602B056
:104D9000B0BDC04600E100E000ED00E080B582B0AB
:104DA00000AF78607B6884229B58802252041A43AB
:104DB0007B6884215A50BD4602B080BD80B582B068
:104DC00000AF78607B6884229B58044A1A407B6855
:104DD00084215A50BD4602B080BDC046FFFFFFFE91
:104DE00080B582B000AF78607B6884229A588023B7
:104DF0005B0413401B0E5A1E9341DBB2181CBD46C8
:104E000002B080BD80B582B000AF78600A1CFB1C88
:104E10001A707A6882235B00D35803229343191CCB
:104E20007A6882235B00D1507A6882235B00D25873
:104E3000FB1C1B781A43111C7A6882235B00D1503B
:104E4000BD4602B080BDC04680B582B000AF78607C
:104E5000396039687A6888235B00D150BD4602B05A
:104E600080BDC04680B584B000AFF860B9607A609C
:104E70007B681968FB68BA68A0329200D150BD46C1
:104E800004B080BD90B585B000AF78600A1CFB1CF3
:104E90001A700F23FC18264B181CFFF717FE031C73
:104EA0002370FB1C1A78234B9200D2587B689B7DA1
:104EB0001C1C7B68DB68101C191C0022231CFDF7DE
:104EC0006FFEFB1C1A781B4B9200D2587B681B6943
:104ED000101C191CFDF774FFFB1C1A78154B92006F
:104EE000D2587B681B7D101C191CFFF78BFF7B6859
:104EF0001B7A002B14D07B681B68DAB27B685B6876
:104F000052B2101C191CFFF7DFFEFB1C1A78094B6C
:104F10009200D2587B685B7D101C191CFDF7A8FF1E
:104F20000F23FB181B78181CBD4605B090BDC0466A
:104F30001C12002054B5001090B585B000AF786009
:104F40007B68DA687B685B7D0F217C18101C191C5C
:104F5000FFF798FF031C23700F23FB181B78181C06
:104F6000BD4605B090BDC04680B586B000AF786044
:104F70007B685B7D1A1C104B9200D3583B617B68A9
:104F80005B68FB6000237B610DE07B699B00FA6836
:104F9000D3181B683A691B68101C191CFFF754FFD3
:104FA0007B6901337B617B689B7D1A1E7B699A421A
:104FB000EBD8BD4606B080BD54B5001090B585B0A5
:104FC00000AF78600F23FB1800221A700120FCF755
:104FD000B5F9031C5A1E9341DBB201225340DBB2E8
:104FE0001A1C0E23FB181A701A7801210A401A7035
:104FF0000E23FB181B78002B0CD07B685B7D1A1CE2
:10500000084B9200D3580F22BC18181CFFF7E8FE7B
:10501000031C23700F23FB181B78181CBD4605B01A
:1050200090BDC04654B5001080B582B000AF786026
:105030000A1CFB1C1A70FB1C1B7801225340DBB2BC
:10504000002B08D07B685B7D1A1C044B9200D35860
:10505000181CFFF7B3FEBD4602B080BD54B500106A
:1050600080B582B000AF78607B68181CFFF77CFFCA
:10507000BD4602B080BDC04680B582B000AF0123FE
:105080007B600AE0194B7A689200D358181C002103
:10509000FDF7F0FD7B68013B7B607B68002BF1DA5C
:1050A00001237B6012E0114B7A689200D2587B6832
:1050B000101C00211A1CFDF7F9FD0D4A7B68101C1D
:1050C000191CFDF727FE7B68013B7B607B68002B8A
:1050D000E9DC074B181CFDF709FE054B181C0321E2
:1050E000FDF7C8FDBD4602B080BDC04654B50010F6
:1050F0000004034880B582B000AF78607B685B7DB8
:105100001A1C044B9200D358181CFFF747FEBD46EB
:1051100002B080BD54B5001080B582B000AF786099
:105120007B68DB681B7A002B0BD07B681B7D032B15
:1051300007D17B68DB681B68DBB25BB2181CFFF72A
:10514000A9FDBD4602B080BD80B582B000AF7860D9
:105150007B681B7A1A1C094B9200D2587B681B682B
:105160009B781B071B0FDBB2191C7B685B68101C4C
:105170001A1CFFF777FEBD4602B080BD54B5001083
:1051800090B585B000AF78600E23FB1800221A702E
:105190007B681B691B78022B63D10E23FC187B688C
:1051A000181CFFF70BFF031C23700D23FC187B68F2
:1051B000181CFFF7C1FE031C23707A680E23FB182E
:1051C0001B78101C191CFFF72FFFFFF755FF7B689A
:1051D0009B6898470C23FB187A68D27D1A700F23BE
:1051E000FB1800221A7022E07B681A680F23FB1854
:1051F0001B789B00D3181B68BB60BB681B7A1A1C0A
:105200001B4B9200D258BB685B7A191CBB681B68A9
:10521000101C1A1CFDF74AFEBB68181CFFF794FF10
:105220000F23FB181A780F23FB1801321A700F2373
:10523000FA180C23FB1812781B789A42D4D37B6897
:10524000181CFFF769FF7B68181CFFF709FF7B68D4
:10525000181CFFF74FFF7B681B690D22BA181278E4
:105260001A707B681B691B78181CBD4605B090BD81
:1052700054B5001080B500AF034B181C0921012262
:10528000FDF782FEBD4680BD0004034880B500AF37
:10529000034B181C0A210122FDF776FEBD4680BD96
:1052A0000008034890B583B000AFFB1D00221A70C0
:1052B000FC1D744B181CFFF79BFC031C2370FB1D8B
:1052C0001B78002B06D1FC1D6F4B181CFFF76CFCE4
:1052D000031C2370FB1D1B78002B06D1FC1D6B4BA0
:1052E000181CFFF761FC031C2370FB1D1B78002BAF
:1052F00006D1FC1D664B181CFFF756FC031C2370DF
:10530000FB1D1B78002B06D1FC1D624B181CFEF701
:1053100003FC031C2370FB1D1B78002B06D1FC1D16
:105320005D4B181CFFF72CFF031C2370FB1D1B7823
:10533000002B06D1FC1D594B181CFFF721FF031C45
:105340002370FB1D1B78002B06D1FC1D544B181C31
:10535000FDF758FF031C2370FB1D1B78002B06D1A3
:10536000FC1D504B181CFFF71FFC031C2370FB1D7A
:105370001B78002B06D1FC1D4B4B181CFFF714FCAF
:10538000031C2370FB1D1B78002B06D1FC1D474B13
:10539000181CFFF709FC031C2370FB1D1B78002B56
:1053A00006D1FC1D424B181CFFF7FEFB031C2370AB
:1053B000FB1D1B78002B06D1FC1D3E4B181CFFF774
:1053C000F3FB031C2370FB1D1B78002B06D1FC1D77
:1053D000394B181CFFF7E8FB031C2370FB1D1B78DF
:1053E000002B06D1FC1D354B181CFFF7DDFB031C01
:1053F0002370FB1D1B78002B06D1FC1D304B181CA5
:10540000FFF7D2FB031C2370FB1D1B78002B06D17A
:10541000FC1D2C4B181CFEF7A7FF031C2370FB1D63
:105420001B78002B06D1FC1D274B181CFEF79CFF98
:10543000031C2370FB1D1B78002B06D1FC1D234B86
:10544000181CFFF781FA031C2370FB1D1B78002B2F
:1054500006D1FC1D1E4B181CFFF776FA031C2370A7
:10546000FB1D1B78002B06D1FC1D1A4B181CFDF7E9
:10547000C9FE031C2370FB1D1B78181CBD4603B01E
:1054800090BDC0465013002098B40010A8B400107E
:10549000B8B4001060110020ECB5001074B6001014
:1054A00048110020C8B40010D8B40010E8B40010AF
:1054B000F8B4001008B5001018B5001028B5001099
:1054C00038B5001094110020BC11002050B4001019
:1054D00054B400105411002080B582B000AF786041
:1054E0000A1CFB1C1A70FB1C1B7801229A407B686B
:1054F0005A60BD4602B080BD80B582B000AF786012
:105500000A1CFB1C1A70FB1C1B78802252029A405A
:105510007B685A60BD4602B080BDC04680B582B08F
:1055200000AF78600A1CFB1C1A707B685A6AFB1C6F
:105530001B78DA40131C01221340181CBD4602B030
:1055400080BDC04680B582B000AF78607B681A68C5
:105550007B681B7B101C191CFFF7BEFFBD4602B009
:1055600080BDC04680B582B000AF78607B681A68A5
:105570007B681B7B101C191CFFF7BEFFBD4602B0E9
:1055800080BDC04680B582B000AF78607B681A6885
:105590007B681B7B101C191CFFF7C0FF031C181C29
:1055A000BD4602B080BDC04680B582B000AF786015
:1055B00039607B683A68C0329200D3589BB2181C9D
:1055C000BD4602B080BDC04690B585B000AF7860E2
:1055D0007B681B7A1A1C0C4B9200D2587B681B68A4
:1055E0009B781B071B0FDBB20E217C18101C191CAB
:1055F000FFF7DAFF031C23800E23FB181B88181CFF
:10560000BD4605B090BDC04654B5001080B582B00F
:1056100000AF78607A688A235B00D3580822134071
:105620005A1E9341DBB2181CBD4602B080BDC04675
:1056300080B582B000AF78607B681B68181CFCF7EF
:10564000D1FF031CDBB2181CBD4602B080BDC046B2
:1056500080B582B000AF78607B681B68181CFFF7CC
:10566000D5FF031C181CBD4602B080BD80B500AF3D
:105670000F4B1B78DBB201225340DAB20C4B1A708D
:105680000C4B1B68002B02D0094B00221A70084BF0
:105690001B78DBB2012B04D1074B181CFEF714FD5D
:1056A00003E0054B181CFEF741FDBD4680BDC0461A
:1056B00095130020901300206011002080B584B065
:1056C00000AFF860B9607A603B60BA687B68D21856
:1056D000FB689A4206D23B681B68002B02D13B68EC
:1056E00001221A60BA687B68D21AFB689A4206D90E
:1056F0003B681B68012B02D13B6800221A60C04640
:10570000BD4604B080BDC04690B585B000AFF8601E
:10571000B960BB1D1A80BB1D1B88181C01F0D4FC8E
:10572000031C181CFE21890501F0E8FA031C181C53
:10573000B96801F0B1F9031C181CF96800F03EFECD
:10574000031C1C1CBB1D1B88181C01F075FC031CD2
:10575000201C191C00F0AEFF031C181CBD4605B030
:1057600090BDC046F0B55F4656464D464446F0B43F
:10577000A7B012AF272328229446BC4463440022DA
:105780001A70242328229446BC44634400221A70D1
:10579000232328229446BC44634400221A70222307
:1057A00028229446BC44634401221A701323282201
:1057B000BA18D418FFF776FD031C23700023FB638F
:1057C00007E0644BFA6B92000021D150FB6B013370
:1057D000FB63FB6BFF2BF4D9132328229446BC44B4
:1057E00063441B78002B00D0FEE75B4B5B4A1A60DA
:1057F0005B4B1B68181C00F0C9FD5A49FA239A003C
:10580000594BFFF75BFF594B1B68181C00F0BEFD9E
:105810005749FA239A00574BFFF750FF4E4B1B682E
:10582000181C00F0B3FD021C534B101C6E211422F7
:10583000FFF744FF4C4B1A684E4B1B681A434E4B04
:105840001B6813434D4A1278D2B21A434C4B1A606C
:105850004B4B1B68002B15D04A4B00221A704A4B49
:10586000181CFEF763FC494B181CFFF76BFE484BF6
:1058700001221A70474B181CFFF774FE464B00229A
:105880001A700DE0414B181CFFF76CFE404B0022D4
:105890001A70404B181CFFF755FE3F4B01221A703F
:1058A0003E4B00221A603E4B00221A60F8E02F2384
:1058B000FC183C4B181CFFF7BBFE031C237027236E
:1058C00028229446BC4463441B78042B22D8272307
:1058D00028229446BC4463441B782822BA182F21FE
:1058E00079180978D1542F23FB181B78194A99008D
:1058F0008A58511C174A9B00995027232822944606
:10590000BC4463441A78272328218C46BC44634452
:1059100001321A70272328229446BC4463441B7822
:10592000052B00D0BAE0262328229446BC446344C9
:1059300000221A70252328229446BC446344002286
:105940001A70272328229446BC44634400221A700C
:105950007DE0C046BC1400206813002000004842CF
:1059600070130020606D0000841300207813002065
:10597000F82A0000881300208C13002094130020C4
:10598000901300209513002060110020D8B400105F
:1059900081130020E8B4001080130020541300206D
:1059A0005813002048110020272328229446BC4485
:1059B00063441B782822BA18D35C8E2B0AD0272385
:1059C00028229446BC4463441B782822BA18D35C2E
:1059D0000E2B0CD1262328229446BC4463441A780B
:1059E000262328218C46BC44634401321A702723A5
:1059F00028229446BC4463441B782822BA18D35CFE
:105A0000662B0AD0272328229446BC4463441B7883
:105A10002822BA18D35CE62B0CD1252328229446E1
:105A2000BC4463441A78252328218C46BC44634433
:105A300001321A70272328229446BC4463441A7802
:105A4000272328218C46BC44634401321A70272343
:105A500028229446BC4463441B78042BA4D92623F3
:105A600028229446BC4463441B78022B03D9D84BAC
:105A7000FE2292051A60252328229446BC446344E2
:105A80001B78022B03D9D34BFE2292051A602723E1
:105A900028229446BC44634400221A7000237B648D
:105AA000CD4B181CFFF7D4FD031C1A1C01235340D7
:105AB000DBB2002B00D0FAE6C84B1B680A2B00D8DB
:105AC0007DE0C64B00221A60C54B1B68181C02F013
:105AD00077F938627962C34B1B68181C02F070F9C1
:105AE000041C0D1CC04B1B68181C02F069F9B8613E
:105AF000F961BE4B1B68181C02F062F938617961CC
:105B0000BB4B1B68181C02F05BF9B860F960B94B1D
:105B10001B687B60B84B1B689B46B84B1B689A465A
:105B2000B74B1B78DBB299462823FB181B789846A5
:105B30002823FB185B789C462823FB189B781E1CA7
:105B40002823FB18DB78181C2823FB181B79191C49
:105B5000AC4AAD4B00940195BC69FD690294039574
:105B60003C697D6904940595BC68FD6806940795B9
:105B70007C6808945C46099454460A944C460B94FD
:105B800044460C9464460D940E960F901091101C90
:105B9000191C3A6A7B6A02F0BDFE9A4B181C02F08F
:105BA000DBFE041C994A974B101C191C221CFDF7A4
:105BB00041FB7B6C042B02D87B6C01337B64944BE0
:105BC000181CFFF7DFFC031E012B55D1804B1B680F
:105BD000181CFE21890500F0ABFB031E21D0844B6D
:105BE0001B688C4A181C111C00F0BCFB031E15D04E
:105BF0007F4B1B68884A181C111C01F07FF8031C9E
:105C00001A1C7B4B1A607A4B1B68181C00F0BEFBF9
:105C1000021C824B181C111CFEF7ACFA6C4B0022C4
:105C20001A606C4B1B68181CFE21890500F080FB74
:105C3000031E21D06E4B1B68794A181C111C00F002
:105C40007DFB031E15D06A4B1B68734A181C111C80
:105C500000F0B4FB031C1A1C654B1A60644B1B68F4
:105C6000181C00F093FB021C6C4B181C111CFEF757
:105C700081FA584B00221A60654B181CFFF782FC12
:105C8000031E012B57D0674B181CFFF77BFC031C2E
:105C90007B63654B181CFFF775FC031C3B637B6B38
:105CA000002B46D13B6C012B43D13B6B012B1ED10A
:105CB0004F4B1B68574A181C111C00F053FB031E66
:105CC00015D04B4B1B68544A181C111C01F016F8D8
:105CD000031C1A1C464B1A60454B1B68181C00F02D
:105CE00055FB021C4D4B181C111CFEF743FA3B6B75
:105CF000002B1ED13E4B1B68494A181C111C00F09A
:105D00001DFB031E15D03A4B1B68434A181C111C7F
:105D100000F054FB031C1A1C354B1A60344B1B68F3
:105D2000181C00F033FB021C3C4B181C111CFEF726
:105D300021FA7B6B3B643D4B181CFFF723FC021CD4
:105D4000232328218C46BC4463441B789A426FD19C
:105D5000242328229446BC4463441A78242328210F
:105D60008C46BC44634401321A7024232822944692
:105D7000BC4463441B781D2B61D9232328229446FD
:105D8000BC4463441B78002B0ED122232822BA186E
:105D9000D218232328218C46BC44634412781B78F4
:105DA0009A4201D0FFF762FC242328229446BC4487
:105DB000634400221A70222328229446BC44634480
:105DC000232228218C46BC44624412781A7036E0A3
:105DD000541300205813002048110020AC13002059
:105DE00070130020781300207C130020681300201B
:105DF0006C12002084130020881300208C130020D4
:105E000094130020BC13002090B600105411002001
:105E100038B500100050C34700007A4460110020DC
:105E200000324848B8B40010A8B4001008B50010FB
:105E3000242328229446BC44634400221A70334B26
:105E4000181CFFF79FFB021C232328218C46BC440F
:105E500063441A702E4B1B68181C8021C90500F082
:105E600029FC031C1A1C2B4B1B68101C191C00F06E
:105E700079FA031E16D0284B1B68284A181C111CDF
:105E800000F070FA031E0DD0244A234B1A60224BF7
:105E90001B68181C00F07AFA021C214B181C111CFC
:105EA000FEF768F91F4B181CFFF76CFB031E012B54
:105EB00017D17B6C022B0CD81B4B1B78DBB2012B50
:105EC00007D11A4B181CFFF74DFB194B00221A7013
:105ED0001BE0164B181CFFF735FB154B01221A70FF
:105EE00013E0114B1B78DBB2012B07D10F4B181CB1
:105EF000FFF738FB0E4B00221A7006E00B4B181C04
:105F0000FFF720FB0A4B01221A706EE408B500105F
:105F100078130020741300206C12002000E62A4839
:105F20006011002038B5001095130020C8B400108F
:105F30008213002090B589B000AF964BFB61964B61
:105F4000BB618023DB007B61944B3B61944BFB6026
:105F5000944B1B685A1C934B1A60934B181CFFF709
:105F600033FB031C9B089BB21A1C904B1A60904B8E
:105F7000181CFFF729FB031C9B089BB21A1C8D4BB6
:105F80001A608D4B181CFFF71FFB031C9B089BB26C
:105F90001A1C8A4B1A60894B1B689A080A23FB1843
:105FA0001A80786901F090F8041C0A23FB181B88FA
:105FB000181C01F089F8031C201C191C00F09EFE1F
:105FC000031C7B607868396900F074FB031C7B60FC
:105FD0007868F96800F092FE031C7B60786801F035
:105FE000EFFE031C0C1C181C211C0022744B01F03A
:105FF000B3F8031C0C1C181C211C01F06FFE031CC1
:10600000181C01F019F8021C6E4B1A606E4B1B68CD
:10601000181C002100F08CF9031E03D0694B1A688C
:10602000694B1A60674B1A68674B1B68101C191C78
:106030001022FFF769FB021C634B1A605B4B1B6865
:106040009B2212015343181C01F03EF8021C5F4BC7
:106050001B68101C191C00F02DFB031CBC1C181C19
:1060600000F094F9031C2380BB1C1B88181C01F052
:106070002BF8041CF869B96900F0A0F9031C201C76
:10608000191C00F009FD031C181CB96900F012FB73
:10609000031C1A1C4E4B1A604E4B1B68181C002127
:1060A00000F046F9031E03D0494B1A68494B1A60A9
:1060B000474B1A68474B1B68101C191C1022FFF72E
:1060C00023FB021C434B1A603A4B1B689B221201B4
:1060D0005343181C00F0F8FF021C3C4B1B68101CBB
:1060E000191C00F0E7FA031C3C1C181C00F04EF9C8
:1060F000031C23803B1C1B88181C01F025FE031C7D
:106100000C1C181C211C0022334B01F04DFB031CFE
:106110000C1C181C211C01F0A7FE021C2F4B1A603E
:106120002F4B1B68181C002100F002F9031E03D03E
:106130002A4B1A682A4B1A60284B1A68284B1B688E
:10614000101C191C1022FFF7DFFA021C244B1A60E6
:10615000204B1A68224B1B68101C191C00F09CFC79
:10616000031C181C01F02CFE031C0C1C181C211C09
:106170001C4A1D4B01F018FB031C0C1C181C211C95
:1061800001F072FE021C194B1A60C046BD4609B0F0
:1061900090BDC04600007A4400003C42295C6F403C
:1061A0000000F242AC13002070B5001098130020DC
:1061B00090B500109C130020B0B50010A013002073
:1061C0000000E03F641300206813002068120020E4
:1061D0006C13002070130020000012407413002084
:1061E000781300208DEDB5A0F7C6B03E7C130020DB
:1061F00080B500AF3C4B1B781F2B05D83A4B1B7862
:106200000133DAB2384B1A70384B181CFFF7DCF93F
:10621000031C9B089BB21A1C354B1A60354B181C8B
:10622000FFF7D2F9031C9B089BB21A1C324B1A6071
:10623000314B1B68181C00F047FF011C2F4B1A68DC
:1062400080235B00081C111C1A1CFFF75DFA021C5E
:106250002A4B1A60264B1B68181C00F035FF031CE4
:10626000181C274900F018FC031C1A1C234B1B6840
:10627000101C191C00F01EFA031C1A1C214B1A607A
:10628000204B1A68204B1B68101C191C2022FFF79A
:106290003BFA021C1C4B1A601B4B1B68181C1B4949
:1062A00000F060F8031E0BD0194B1B78DBB2002BFB
:1062B00006D10D4B1B781F2B02D9154B01221A70EA
:1062C000114B1B68181C134900F038F8031E00D14D
:1062D00008E00F4B1B78DBB2012B02D10C4B0022E4
:1062E0001A70C046BD4680BDB01300201CB6001019
:1062F000A41300203CB60010A81300206812002050
:1063000000001B455C1300206013002000200045A6
:106310009413002000C0F3448446081C6146FFE744
:106320001FB500F073FB002801D40021C8421FBD37
:1063300010B500F0F7FA4042013010BD10B500F082
:1063400065FB002801DB002010BD012010BDC04608
:1063500010B500F05BFB002801DD002010BD01201E
:1063600010BDC04610B500F007FB002801DC00207E
:1063700010BD012010BDC04610B500F0FDFA002888
:1063800001DA002010BD012010BDC0469E2110B5CD
:10639000C905041CFFF7F0FF002803D1201C00F002
:1063A0002BFE10BD9E21201CC90500F0A7FC00F0AB
:1063B00023FE80231B069C466044F2E7F8B54A00A2
:1063C000430244004E02C50F240E281C9B09120EE6
:1063D000C90FB7098D4240D0A01A002800DC84E024
:1063E000002A1CD1002F5CD15A0704D00F221A407A
:1063F000042A00D004338022D2041A40281C002A28
:1064000024D00134FF2C00D17BE09B015B0AE4B275
:106410005B02E4055B0A2343C0071843F8BDFF2C69
:10642000E2D08022D204174301261B2808DC391C45
:1064300020223E1CC140101A8640771EBE410E43EA
:106440009B1B5A0133D4281C5A07CFD1DB08FF2CE1
:106450001ED05B025B0AE4B2DAE7A11A002957DD1D
:10646000002A3AD0FF2CBFD08022D2041743012645
:106470001B2972DD9B195A01E5D50134FF2C00D18F
:1064800087E001218A4A194013405B080B43ABE7C0
:10649000002B36D08022D20313435B025B0AFF2419
:1064A000B6E7013800283FD1DB1B5A01CBD59B0151
:1064B0009E09301C01F068FD05388640844223DCCB
:1064C000001B1F24321C431C201ADA408640131C78
:1064D000741EA6410024334386E7002F00D183E7D2
:1064E0000139002950D1DB19C5E7002820D1621CF1
:1064F000D2B2012A5EDDDE1B720128D5FE1A0D1C08
:10650000D7E7FF24002383E7694B241A33406BE766
:10651000002958D1621CD1B201293CDDFF2A37D0B5
:10652000FB185B08141C5FE7FF2C00D07CE75BE7DF
:10653000002C1ED0FF2A23D08024E40440422343B1
:106540001B285BDD0123FB1A141C0D1CADE7002E7C
:10655000AFD100230020002478E73A1CCA409446BB
:1065600020223E1C511A8E406246771EBE411643C1
:1065700080E7002B3ED0C0430028E4D0FF2ADFD1C3
:106580003B1CFF240D1C2FE7FF2C00D06FE72BE7EF
:10659000FF2400235AE7002C5AD1002B7FD0002F74
:1065A00000D121E7DB195A0100D44CE7404A0134FD
:1065B000134019E7002C15D1002B2FD1002F5DD0EF
:1065C0003B1C0D1C10E7002C21D1002B53D0C943DC
:1065D000002904D0FF2A4BD01B2957DD0123DB19EA
:1065E000141C48E7002B22D1002F4AD03B1C0D1C65
:1065F000FF24F9E63B1C141C0D1CF5E61D1C202491
:10660000C540201A8340581E83412B439BE7FF2A35
:106610002ED08024E40449422343DDE7002F00D13B
:10662000E2E6DA1B50013CD5FB1A0D1CDCE6FF2428
:10663000002F00D1D8E68022DB08D203134204D019
:10664000FE08164201D1331C0D1CDB00FF24CBE6F3
:10665000002B0DD0FF24002F00D1C5E68022DB08DF
:10666000D2031342F1D0FE081642EED1331CECE700
:106670003B1CFF24B8E63B1C141CB5E6231C002081
:10668000E4E6802300209B04FF24DFE61E1C202478
:10669000CE40611A8B40591E8B4133439FE73B1C10
:1066A000A2E6131E00D0CEE600230020CEE6C046B0
:1066B000FFFFFFFBF0B556464D465F464446F0B43B
:1066C00043024500C70F83B08A465C0A2E0EB946C6
:1066D00041D0FF2E26D080231B042343DC0000235F
:1066E00098469B467F3E53465B025D0A53465A00DE
:1066F000DB0F120E9A4639D0FF2A33D080231B04B9
:106700002B43DD0000237F3A5146B21A46467940BA
:10671000081C01921E430F2E00D976E07E4AB60077
:106720009659B746002C30D108239846063B9B4625
:10673000D9E780230021DB03FF245B02E4055B0A29
:10674000C90723430B43181C03B03CBC9046994631
:10675000A246AB46F0BD002C28D104239846033B4B
:106760009B46C0E7002D1FD1022302E0002D11D16E
:106770000123B21A50464646784001921E430F2E1E
:1067800027D86649B60089598F460C239846093B9D
:106790009B46A8E7281C01F0F7FB7622431F5242D4
:1067A0009D40121A0023AFE70323ADE7201C01F040
:1067B000EBFB431F9C4076235B421E1A0023984646
:1067C0009B4690E70025D1469B465B464846022BF8
:1067D0006FD10121FF2401400023AEE77E23019AFF
:1067E0005B429B1A1B2B6DDD01214B461940002497
:1067F0000023A2E78023DB031C4249D18023DB0373
:1068000023435B025B0A391C96E763016D01AB42CF
:1068100037D389461A2001215B1B01241E1C490025
:106820005B00002E01DBAB4201D35B1B214301382F
:106830000028F3D1581E83410B431D1C019C7F345B
:10684000002CCBDD6B0704D00F232B40042B00D092
:1068500004352B0104D5019A314B8032141C1D40A4
:10686000FE2C07DD4B460121FF241940002364E77D
:10687000251CAAE701214A46AB015B0AE4B211409C
:106880005BE7019A8946013A01921B200021C4E787
:106890001D4207D023435B025B0A391C4CE70025ED
:1068A0006302ABD58023DB032B435B025B0A5146BB
:1068B00042E7032B25D0012BC0D101210024014048
:1068C00000233AE7291CD9402B1C019A9E329340A1
:1068D0005D1EAB410B435A0704D00F221A40042A15
:1068E00000D004335A0105D54B460121012419403B
:1068F000002322E701214A469B015B0A1140002444
:106900001BE7802301214A46DB032B435B020A403D
:106910005B0A111C10E7C04620B7001060B70010DA
:10692000FFFFFFF7430270B542004C005D0AC30F42
:106930004802120E460A240EC90FFF2A05D0FF2C6A
:1069400008D00120A2420BD070BD0120002DFBD148
:10695000FF2CF6D10120002EF6D10120A242F3D166
:10696000B542F1D18B4205D0002AEDD1281C431E3F
:106970009841E9E70020E7E7F0B543024D024A00FD
:1069800044005E0A240EC30F6D0A120EC90FFF2CBD
:106990000DD0FF2A31D0002C0DD177427741002A4B
:1069A00023D1002D21D10020002F0BD107E0002E94
:1069B00028D1FF2A21D0002A05D08B4207D0584287
:1069C00001231843F0BD002DF9D08B42F7D194423A
:1069D000F5DC04DBAE42F2D80020AE42F2D25842DF
:1069E000434101205B421843ECE7002FE5D04842C9
:1069F0004141012049420843E4E7002D02D1002C27
:106A0000CBD0DAE702204042DCE7C0464302F0B5D3
:106A100042004C005E0AC30F4802120E450A240EC3
:106A2000C90FFF2A0FD0FF2C1AD0002A10D17742AD
:106A30007741002C29D0002F17D048424141012036
:106A4000494208430BE00220002E08D1FF2C07D05A
:106A5000002C0AD1002D08D1584201231843F0BD63
:106A60000220002DFBD1002AE1D08B42F4D1A242BA
:106A7000F2DC04DBAE42EFD80020AE42EFD2584247
:106A8000434101205B421843E9E7002DD3D10020A8
:106A9000002FE4D1E0E7C046F0B55F4656464D46CC
:106AA0004446F0B445024600C40F83B00F1C6D0A83
:106AB000360EA34645D0FF2E25D080231B041D4350
:106AC00000239A46ED007F3E01937B025B0A9846C5
:106AD0007800FB0F000E994640D0FF2838D0802365
